:020000040800F2
:100000000028002075310008FD3000080531000887
:100010000D310008153100081D31000800000000F6
:100020000000000000000000000000002531000872
:1000300031310008000000003D310008493100085E
:10004000BD310008BD310008BD310008BD310008D8
:10005000BD310008BD310008BD310008BD310008C8
:10006000BD310008BD310008BD310008BD310008B8
:10007000BD310008BD310008BD310008BD310008A8
:10008000BD310008BD310008BD310008BD31000898
:10009000BD310008BD310008BD310008BD31000888
:1000A000BD310008BD310008BD310008BD31000878
:1000B000BD310008BD31000800000000BD3100085E
:1000C000BD3100080000000000000000BD31000844
:1000D00000000000BD31000855310008000000009C
:1000E000BD310008BD310008BD310008000000002E
:1000F0000000000000000000000000000000000000
:0C01000000000000000000005FF808F1A3
:1001100010B5054C237833B9044B13B10448AFF341
:1001200000800123237010BD70000020000000003B
:10013000F46D000808B5034B1BB103490348AFF346
:10014000008008BD0000000074000020F46D00086D
:1001500081F0004102E000BF83F0004330B54FEA78
:1001600041044FEA430594EA050F08BF90EA020FE5
:100170001FBF54EA000C55EA020C7FEA645C7FEA78
:10018000655C00F0E2804FEA5454D4EB5555B8BF9B
:100190006D420CDD2C4480EA020281EA030382EA0C
:1001A000000083EA010180EA020281EA0303362D9E
:1001B00088BF30BD11F0004F4FEA01314FF4801C71
:1001C0004CEA113102D0404261EB410113F0004F83
:1001D0004FEA03334CEA133302D0524263EB43033A
:1001E00094EA050F00F0A780A4F10104D5F1200ED8
:1001F0000DDB02FA0EFC22FA05F2801841F1000133
:1002000003FA0EF2801843FA05F359410EE0A5F106
:1002100020050EF1200E012A03FA0EFC28BF4CF037
:10022000020C43FA05F3C01851EBE37101F00045ED
:1002300007D54FF0000EDCF1000C7EEB00006EEBFA
:100240000101B1F5801F1BD3B1F5001F0CD3490884
:100250005FEA30004FEA3C0C04F101044FEA4452DB
:1002600012F5800F80F09A80BCF1004F08BF5FEA62
:10027000500C50F1000041EB045141EA050130BD42
:100280005FEA4C0C404141EB0101013C28BFB1F554
:10029000801FE9D291F0000F04BF01460020B1FA9F
:1002A00081F308BF2033A3F10B03B3F120020CDA72
:1002B0000C3208DD02F1140CC2F10C0201FA0CF050
:1002C00021FA02F10CE002F11402D8BFC2F1200CB5
:1002D00001FA02F120FA0CFCDCBF41EA0C0190406B
:1002E000E41AA2BF01EB0451294330BD6FEA0404B4
:1002F0001F3C1CDA0C340EDC04F11404C4F120029F
:1003000020FA04F001FA02F340EA030021FA04F3B0
:1003100045EA030130BDC4F10C04C4F1200220FA07
:1003200002F001FA04F340EA0300294630BD21FA45
:1003300004F0294630BD94F0000F83F4801306BF0B
:1003400081F480110134013D4EE77FEA645C18BFFF
:100350007FEA655C29D094EA050F08BF90EA020F96
:1003600005D054EA000C04BF1946104630BD91EA8E
:10037000030F1EBF0021002030BD5FEA545C05D191
:100380004000494128BF41F0004130BD14F58004D0
:100390003CBF01F5801130BD01F0004545F0FE4144
:1003A00041F470014FF0000030BD7FEA645C1ABF79
:1003B000194610467FEA655C1CBF0B46024650EAB0
:1003C000013406BF52EA033591EA030F41F40021DC
:1003D00030BD00BF90F0000F04BF0021704730B562
:1003E0004FF4806404F132044FF000054FF0000137
:1003F00050E700BF90F0000F04BF0021704730B5F8
:100400004FF4806404F1320410F0004548BF4042CC
:100410004FF000013EE700BF42004FEAE2014FEA21
:1004200031014FEA02701FBF12F07F4393F07F4FFC
:1004300081F06051704732F07F4208BF704793F0FF
:100440007F4F04BF41F40021704730B54FF4607412
:1004500001F0004521F000411CE700BF50EA010215
:1004600008BF704730B54FF000050AE050EA0102BE
:1004700008BF704730B511F0004502D5404261EB2E
:1004800041014FF4806404F132045FEA915C3FF46F
:10049000D8AE4FF003025FEADC0C18BF03325FEA0C
:1004A000DC0C18BF033202EBDC02C2F1200300FABD
:1004B00003FC20FA02F001FA03FE40EA0E0021FAE2
:1004C00002F11444BDE600BF70B54FF0FF0C4CF4D0
:1004D000E06C1CEA11541DBF1CEA135594EA0C0F82
:1004E00095EA0C0F00F0DEF82C4481EA030621EABD
:1004F0004C5123EA4C5350EA013518BF52EA0335F8
:1005000041F4801143F4801338D0A0FB02CE4FF0A9
:100510000005E1FB02E506F00042E0FB03E54FF0D9
:100520000006E1FB03569CF0000F18BF4EF0010ED1
:10053000A4F1FF04B6F5007F64F5407404D25FEACD
:100540004E0E6D4146EB060642EAC62141EA555180
:100550004FEAC52040EA5E504FEACE2EB4F1FD0CC2
:1005600088BFBCF5E06F1ED8BEF1004F08BF5FEA40
:10057000500E50F1000041EB045170BD06F00046F2
:1005800046EA010140EA020081EA0301B4EB5C049F
:10059000C2BFD4EB0C0541EA045170BD41F4801197
:1005A0004FF0000E013C00F3AB8014F1360FDEBFBC
:1005B000002001F0004170BDC4F10004203C35DA98
:1005C0000C341BDC04F11404C4F1200500FA05F31B
:1005D00020FA04F001FA05F240EA020001F00042BC
:1005E00021F0004110EBD37021FA04F642EB060132
:1005F0005EEA430E08BF20EAD37070BDC4F10C045C
:10060000C4F1200500FA04F320FA05F001FA04F21F
:1006100040EA020001F0004110EBD37041F100010B
:100620005EEA430E08BF20EAD37070BDC4F1200516
:1006300000FA05F24EEA020E20FA04F301FA05F27E
:1006400043EA020321FA04F001F0004121FA04F226
:1006500020EA020000EBD3705EEA430E08BF20EAF6
:10066000D37070BD94F0000F0FD101F00046400030
:1006700041EB010111F4801F08BF013CF7D041EAB2
:10068000060195F0000F18BF704703F000465200B6
:1006900043EB030313F4801F08BF013DF7D043EA87
:1006A0000603704794EA0C0F0CEA135518BF95EA3D
:1006B0000C0F0CD050EA410618BF52EA4306D1D1C4
:1006C00081EA030101F000414FF0000070BD50EAE3
:1006D000410606BF1046194652EA430619D094EA6D
:1006E0000C0F02D150EA013613D195EA0C0F05D157
:1006F00052EA03361CBF104619460AD181EA0301AB
:1007000001F0004141F0FE4141F470014FF0000062
:1007100070BD41F0FE4141F4780170BD70B54FF0FD
:10072000FF0C4CF4E06C1CEA11541DBF1CEA13557D
:1007300094EA0C0F95EA0C0F00F0A7F8A4EB05045F
:1007400081EA030E52EA03354FEA013100F0888056
:100750004FEA03334FF0805545EA131343EA12631F
:100760004FEA022245EA111545EA10654FEA0026D4
:100770000EF000419D4208BF964244F1FD0404F58D
:10078000407402D25B084FEA3202B61A65EB0305E9
:100790005B084FEA32024FF480104FF4002CB6EBA6
:1007A000020E75EB030E22BFB61A754640EA0C0026
:1007B0005B084FEA3202B6EB020E75EB030E22BF66
:1007C000B61A754640EA5C005B084FEA3202B6EBA7
:1007D000020E75EB030E22BFB61A754640EA9C0066
:1007E0005B084FEA3202B6EB020E75EB030E22BF36
:1007F000B61A754640EADC0055EA060E18D04FEAF4
:10080000051545EA16754FEA06164FEAC30343EA93
:1008100052734FEAC2025FEA1C1CC0D111F4801F60
:100820000BD141EA00014FF000004FF0004CB6E759
:1008300011F4801F04BF01430020B4F1FD0C88BFF8
:10084000BCF5E06F3FF6AFAEB5EB030C04BFB6EB03
:10085000020C5FEA500C50F1000041EB045170BDF6
:100860000EF0004E4EEA113114EB5C04C2BFD4EB23
:100870000C0541EA045170BD41F480114FF0000EA7
:10088000013C90E645EA060E8DE60CEA135594EA23
:100890000C0F08BF95EA0C0F3FF43BAF94EA0C0F26
:1008A0000AD150EA01347FF434AF95EA0C0F7FF49B
:1008B00025AF104619462CE795EA0C0F06D152EAEF
:1008C00003353FF4FDAE1046194622E750EA4106D3
:1008D00018BF52EA43067FF4C5AE50EA41047FF4E4
:1008E0000DAF52EA43057FF4EBAE12E74FF0FF3C49
:1008F00006E000BF4FF0010C02E000BF4FF0010C1A
:100900004DF804CD4FEA410C7FEA6C5C4FEA430C92
:1009100018BF7FEA6C5C1BD001B050EA410C0CBFE1
:1009200052EA430C91EA030F02BF90EA020F002043
:10093000704710F1000F91EA030F58BF994208BFAA
:1009400090422CBFD8176FEAE37040F00100704767
:100950004FEA410C7FEA6C5C02D150EA013C07D1BE
:100960004FEA430C7FEA6C5CD6D152EA033CD3D009
:100970005DF8040B704700BF8446104662468C4603
:100980001946634600E000BF01B5FFF7B7FF002836
:1009900048BF10F1000F01BD4DF808EDFFF7F4FF5F
:1009A0000CBF012000205DF808FB00BF4DF808EDEA
:1009B000FFF7EAFF34BF012000205DF808FB00BF0D
:1009C0004DF808EDFFF7E0FF94BF012000205DF82F
:1009D00008FB00BF4DF808EDFFF7CEFF94BF0120E4
:1009E00000205DF808FB00BF4DF808EDFFF7C4FFDD
:1009F00034BF012000205DF808FB00BF4FEA410C26
:100A00007FEA6C5C02D150EA013C0AD14FEA430C08
:100A10007FEA6C5C02D152EA033C02D14FF0000045
:100A200070474FF0010070474FEA410212F5001283
:100A300015D211D56FF47873B3EB625212D94FEA25
:100A4000C12343F0004343EA505311F0004F23FA0F
:100A500002F018BF404270474FF00000704750EA64
:100A6000013005D111F0004008BF6FF00040704721
:100A70004FF00000704700BF4FEA4102B2F1E0437F
:100A800024BFB3F5001CDCF1FE5C0DD901F0004C75
:100A90004FEAC0024CEA5070B2F1004F40EB8300C5
:100AA00008BF20F00100704711F0804F21D113F1F1
:100AB0003872BCBF01F00040704741F480114FEA2A
:100AC0005252C2F11802C2F1200C10FA0CF320FAB3
:100AD00002F018BF40F001004FEAC1234FEAD323D0
:100AE00003FA0CFC40EA0C0023FA02F34FEA43033A
:100AF000CCE77FEA625307D150EA01331EBF4FF0C3
:100B0000FE4040F44000704701F0004040F0FE40DD
:100B100040F40000704700BF80F0004002E000BFDA
:100B200081F0004142001FBF5FEA410392EA030FD8
:100B30007FEA226C7FEA236C6AD04FEA1262D2EB22
:100B40001363C1BFD218414048404140B8BF5B4227
:100B5000192B88BF704710F0004F40F4000020F0C0
:100B60007F4018BF404211F0004F41F4000121F0D6
:100B70007F4118BF494292EA030F3FD0A2F1010220
:100B800041FA03FC10EB0C00C3F1200301FA03F15E
:100B900000F0004302D5494260EB4000B0F5000F81
:100BA00013D3B0F1807F06D340084FEA310102F140
:100BB0000102FE2A51D2B1F1004F40EBC25008BFF2
:100BC00020F0010040EA03007047490040EB0000BC
:100BD000013A28BFB0F5000FEDD2B0FA80FCACF1BD
:100BE000080CB2EB0C0200FA0CF0AABF00EBC250EA
:100BF00052421843BCBFD0401843704792F0000FD8
:100C000081F4000106BF80F400000132013BB5E72A
:100C10004FEA41037FEA226C18BF7FEA236C21D0A0
:100C200092EA030F04D092F0000F08BF0846704705
:100C300090EA010F1CBF0020704712F07F4F04D1D3
:100C4000400028BF40F00040704712F100723CBFE6
:100C500000F50000704700F0004343F0FE4040F410
:100C6000000070477FEA226216BF08467FEA2363CE
:100C70000146420206BF5FEA412390EA010F40F4B9
:100C8000800070474FF0000304E000BF10F0004305
:100C900048BF40425FEA000C08BF704743F09643EC
:100CA00001464FF000001CE050EA010208BF704707
:100CB0004FF000030AE000BF50EA010208BF70478E
:100CC00011F0004302D5404261EB41015FEA010CA3
:100CD00002BF84460146002043F0B64308BFA3F19B
:100CE0008053A3F50003BCFA8CF2083AA3EBC2537D
:100CF00010DB01FA02FC634400FA02FCC2F120029C
:100D0000BCF1004F20FA02F243EB020008BF20F0D2
:100D10000100704702F1200201FA02FCC2F1200238
:100D200050EA4C0021FA02F243EB020008BF20EA2D
:100D3000DC7070474FF0FF0C1CEAD0521EBF1CEA5B
:100D4000D15392EA0C0F93EA0C0F6FD01A4480EA49
:100D5000010C400218BF5FEA41211ED04FF0006332
:100D600043EA501043EA5111A0FB01310CF000405E
:100D7000B1F5000F3EBF490041EAD3715B0040EA84
:100D8000010062F17F02FD2A1DD8B3F1004F40EB54
:100D9000C25008BF20F00100704790F0000F0CF027
:100DA000004C08BF49024CEA502040EA51207F3AEB
:100DB000C2BFD2F1FF0340EAC250704740F40000C6
:100DC0004FF00003013A5DDC12F1190FDCBF00F0B7
:100DD00000407047C2F10002410021FA02F1C2F165
:100DE000200200FA02FC5FEA310040F1000053EA01
:100DF0004C0308BF20EADC70704792F0000F00F04F
:100E0000004C02BF400010F4000F013AF9D040EA54
:100E10000C0093F0000F01F0004C02BF490011F4E8
:100E2000000F013BF9D041EA0C018FE70CEAD153E6
:100E300092EA0C0F18BF93EA0C0F0AD030F0004C66
:100E400018BF31F0004CD8D180EA010000F000401A
:100E5000704790F0000F17BF90F0004F084691F0D8
:100E6000000F91F0004F14D092EA0C0F01D1420212
:100E70000FD193EA0C0F03D14B0218BF084608D1DB
:100E800080EA010000F0004040F0FE4040F4000025
:100E9000704740F0FE4040F4400070474FF0FF0CB8
:100EA0001CEAD0521EBF1CEAD15392EA0C0F93EAFF
:100EB0000C0F69D0A2EB030280EA010C49024FEA51
:100EC000402037D04FF0805343EA111143EA10130A
:100ED0000CF000408B4238BF5B0042F17D024FF4C2
:100EE000000C8B4224BF5B1A40EA0C00B3EB510F9D
:100EF00024BFA3EB510340EA5C00B3EB910F24BF86
:100F0000A3EB910340EA9C00B3EBD10F24BFA3EB0A
:100F1000D10340EADC001B0118BF5FEA1C1CE0D1D2
:100F2000FD2A3FF650AF8B4240EBC25008BF20F085
:100F3000010070470CF0004C4CEA50207F32C2BFD9
:100F4000D2F1FF0340EAC250704740F400004FF076
:100F50000003013A37E792F0000F00F0004C02BFA7
:100F6000400010F4000F013AF9D040EA0C0093F071
:100F7000000F01F0004C02BF490011F4000F013BCB
:100F8000F9D041EA0C0195E70CEAD15392EA0C0F33
:100F900008D142027FF47DAF93EA0C0F7FF470AF6B
:100FA000084676E793EA0C0F04D14B023FF44CAFAE
:100FB00008466EE730F0004C18BF31F0004CCAD143
:100FC00030F000427FF45CAF31F000437FF43CAF7F
:100FD0005FE700BF4FEA4002B2F1FE4F0FD34FF080
:100FE0009E03B3EB12620DD94FEA002343F0004396
:100FF00010F0004F23FA02F018BF404270474FF044
:101000000000704712F1610F01D1420205D110F0CA
:10101000004008BF6FF0004070474FF0000070477D
:101020007BB972B90029BEBF00204FF0004106E035
:1010300008BF00281CBF6FF000414FF0FF3000F0E8
:101040009BB9ADF1080C6DE904CE002909DB002B3A
:101050001ADB00F035F8DDF804E0DDE9022304B026
:101060007047404261EB4101002B1BDB00F028F888
:10107000DDF804E0DDE9022304B0404261EB410108
:10108000524263EB43037047524263EB430300F069
:1010900017F8DDF804E0DDE9022304B0404261EB1B
:1010A00041017047524263EB430300F009F8DDF859
:1010B00004E0DDE9022304B0524263EB43037047CE
:1010C0002DE9F047089D0C46002B4ED194468C45E7
:1010D0008646B2FA82F262D94AB1C2F12003914047
:1010E00020FA03F30CFA02FC194300FA02FE4FEA5D
:1010F0001C47B1FBF7F407FB14111FFA8CF64FEAFB
:101100001E4343EA014304FB06F199420AD91CEB52
:10111000030304F1FF3080F01081994240F20D8109
:10112000023C6344591AB1FBF7F007FB101100FBB6
:1011300006F61FFA8EF343EA01439E420AD91CEBDE
:10114000030300F1FF3180F0FA809E4240F2F78005
:101150006344023800219B1B40EA04401DB1D34088
:101160000022C5E90032BDE8F0878B4205D90DB1F8
:10117000C5E9000100210846F5E7B3FA83F100292B
:1011800046D1A34202D39042C0F0EE80861A64EBAF
:1011900003030120002DE6D0C5E90063E3E7002A40
:1011A00040F08F80A1EB0C0401214FEA1C481FFA8C
:1011B0008CF7B4FBF8F608FB164407FB06F04FEA81
:1011C0001E4343EA0443984208D91CEB030306F18B
:1011D000FF3402D2984200F2CB8026461C1AB4FBA0
:1011E000F8F008FB104400FB07F71FFA8EF343EA00
:1011F00004439F4208D91CEB030300F1FF3402D2E1
:101200009F4200F2AE802046DB1B40EA0640A5E785
:10121000C1F120078B4022FA07FC4CEA030C24FAA8
:1012200007F64FEA1C49B6FBF9F81FFA8CFE09FBDA
:10123000186620FA07F38C4000FA01FA08FB0EF05A
:101240001C43230C43EA0643984202FA01F20AD9EE
:101250001CEB030308F1FF3680F0818098427ED9B1
:10126000A8F1020863441E1AB6FBF9F309FB1366E2
:1012700003FB0EFEA4B244EA0644A64508D91CEBC3
:10128000040403F1FF3066D2A64564D9023B6444EE
:1012900043EA0840A0FB0283A4EB0E049C42C6462E
:1012A0001E4650D34DD055B1BAEB0E0364EB060485
:1012B00004FA07F7CB401F43CC40C5E90074002176
:1012C00051E70CFA02FCC2F12003D9404FEA1C4856
:1012D00020FA03F300FA02FEB1FBF8F008FB10114C
:1012E00094401C431FFA8CF7230C43EA014300FB94
:1012F00007F1994208D91CEB030300F1FF362CD209
:1013000099422AD9023863445B1AB3FBF8F108FB0F
:101310001133A4B244EA034401FB07F3A34208D902
:101320001CEB040401F1FF3613D2A34211D9023998
:101330006444E41A41EA00413BE70446F2E6084609
:1013400008E7C245AFD2B8EB020E63EB0C060138DA
:10135000A9E73146EDE703469AE73046D4E7B046C1
:1013600081E7634402384FE706462346084611E703
:10137000023E634432E700BF704700BF80B588B0CB
:1013800004AF78603960642302930123019307F16D
:101390000E0300930123D0227621786802F028FD05
:1013A0000346FB73FB7B002B01D0FB7B47E0BB7B41
:1013B000582B01D0012342E0B6237B7364230293B0
:1013C0000123019307F10D0300930123E02276210D
:1013D000786802F013FC0346FB73FB7B002B01D003
:1013E000FB7B2CE00A2001F04DFF3968786800F0A3
:1013F0002AF80346FB73FB7B002B01D0FB7B1EE02E
:10140000032301220521786800F0ABF80346FB7343
:10141000FB7B002B01D0FB7B11E00021786800F002
:1014200028F90346FB73FB7B002B01D0FB7B06E016
:101430000421786800F0E1F80346FB73FB7B184653
:101440001037BD4680BD80B58EB004AF786039607E
:10145000642302931A23019307F10C0300930123E1
:10146000F7227621786802F0C3FC0346002B01D0F6
:10147000012372E03B7B1AB27B7B1B021BB213433E
:101480001BB29AB23B689A81BB7B1AB2FB7B1B02F0
:101490001BB213431AB23B68DA813B7C1AB27B7CE5
:1014A0001B021BB213431AB23B681A82BB7C1AB2EE
:1014B000FB7C1B021BB213431BB29AB23B685A82DD
:1014C0003B7D1AB27B7D1B021BB213431AB23B68F1
:1014D0009A82BB7D1AB2FB7D1B021BB213431AB268
:1014E0003B68DA823B7E1AB27B7E1B021BB213433F
:1014F0001AB23B681A83BB7E1AB2FB7E1B021BB278
:1015000013431AB23B685A833B7F1AB27B7F1B029C
:101510001BB213431AB23B689A83BB7F1AB2FB7F9C
:101520001B021BB213431AB23B68DA8397F82030D0
:101530001AB297F821301B021BB213431AB23B6850
:101540001A8497F822301AB297F823301B021BB284
:1015500013431AB23B685A84002318462837BD4605
:1015600080BD80B588B004AF7860084611461A4641
:101570000346FB700B46BB7013467B7064230293DB
:101580000123019307F10E0300930123F422762136
:10159000786802F02DFC0346FB73FB7B002B01D027
:1015A000FB7B26E0BB7B23F03F03DBB2BB73BB7846
:1015B0005B015AB2FB789B005BB213435AB297F9B6
:1015C000013013435AB2BB7B5BB213435BB2DBB255
:1015D000BB73642302930123019307F10E0300936D
:1015E0000123F4227621786802F008FB0346FB739E
:1015F000FB7B18461037BD4680BD80B588B004AF70
:1016000078600B46FB70642302930123019307F17A
:101610000E0300930123F5227621786802F0E8FB9F
:101620000346FB73FB7B002B01D0FB7B1DE0BB7BE8
:1016300023F01C03DBB2BB73FB789B005AB2BB7B6D
:101640005BB213435BB2DBB2BB736423029301232F
:10165000019307F10E0300930123F52276217868A8
:1016600002F0CCFA0346FB73FB7B18461037BD46ED
:1016700080BD80B588B004AF78600B46FB706423F2
:1016800002930123019307F10E0300930123F52236
:101690007621786802F0ACFB0346FB73FB7B002BE2
:1016A00001D0FB7B1DE0BB7B03F01F03DBB2BB73F0
:1016B000FB785B015AB2BB7B5BB213435BB2DBB21C
:1016C000BB73642302930123019307F10E0300937C
:1016D0000123F5227621786802F090FA0346FB7325
:1016E000FB7B18461037BD4680BD80B58AB004AF7D
:1016F000F860B9607A60642302930623019307F1CE
:10170000100300930123F7227621F86802F070FBA2
:101710000346FB75FB7D002B01D0FB7D16E03B7C77
:101720001A037B7C1B011343BA7C1209D2B21A4301
:10173000BB681A60FB7C1A033B7D1B0113437A7D57
:101740001209D2B21A437B681A60FB7D184618371B
:10175000BD4680BD80B586B000AFF860B9607A60E4
:10176000FB68DA107B689B895B00D31A7A68B2F950
:101770000E2002FB03F3DB127B61FB681B117A680E
:1017800092899B1AFA68121179688989521A02FBA8
:1017900003F31B137A68B2F9102002FB03F39B13C7
:1017A0003B617A693B691A44BB681A60BB681A6876
:1017B00013469B00134480331B121846FFF766FA4A
:1017C000034604491846FFF769FB034618461837D5
:1017D000BD4680BD0000C8422DE9B04FCEB000AF7D
:1017E000C7F81C01C7F81811C7F81421D7F8183129
:1017F000DA171C461546B4F5FA3A45F1FF3BC7E93E
:101800004CABD7F83421D7F8303103FB02F1D7F8CD
:101810003421D7F8303102FB03F3CA18D7F830313E
:10182000A3FB038902EB09039946D7F81431B3F9F6
:101830001C301BB2DA17C7F8B830C7F8BC20D7E99C
:101840002E01034603FB09F20B4608FB03F3134486
:101850000246A8FB0221C7F8C410C7F8C020D7F879
:10186000C4201344C7F8C430D7E93034C7E94A3438
:10187000C7E94A34D7F81431B3F91A301BB2DA1772
:10188000C7F8B030C7F8B420D7F83031D7E92C45C5
:101890002A4602FB03F2D7F83431214601FB03F359
:1018A0001A44D7F830312146A3FB0131C7F80C1197
:1018B000C7F80831D7F80C31D318C7F80C314FF0FE
:1018C00000004FF00001D7E942452B46590422465B
:1018D00041EAD23123465804D7E94A2314183C641C
:1018E0004B417B64D7E91034C7E94A34D7F8143147
:1018F000B3F918301BB2DA17C7F8A830C7F8AC2014
:101900004FF000004FF00001D7F8A830D9000020B8
:10191000D7E94A231418BC634B41FB63D7E90E3463
:10192000C7E94A34D7F83421D7F8303103FB02F144
:10193000D7F83421D7F8303102FB03F3CA18D7F8AF
:101940003031A3FB0331C7F80411C7F80031D7F8D1
:101950000431D318C7F80431D7F81431B3F916306D
:101960001BB2DA17C7F8A030C7F8A420D7E9403473
:101970002246D7E92889414601FB02F24D46184626
:101980002146034603FB05F3134402464146A2FBEE
:101990000121C7F8FC10C7F8F820D7F8FC20134441
:1019A000C7F8FC304FF000004FF00001D7E93E458A
:1019B0002346180A2A4640EA02602B461912D7F835
:1019C0001431B3F914301BB2DA17C7F89830C7F8DE
:1019D0009C20D7F83031D7E926894A4602FB03F22A
:1019E000D7F83431444604FB03F31A44D7F83031B6
:1019F0004446A3FB0434C7F8F440C7F8F030D7F8E6
:101A0000F430D318C7F8F4304FF000024FF0000361
:101A1000D7E93C894C462303C44643EA1C53444659
:101A2000220384183C6341EB03037B63D7E90C3446
:101A3000C7E94C34D7E94C2303F50041C7F89410AB
:101A4000C7F89020D7F814315B8A9BB20022C7F800
:101A50008830C7F88C20D7E924342246D7E9228978
:101A6000414601FB02F24D4618462146034603FB60
:101A700005F3134402464146A2FB0121C7F8EC10CE
:101A8000C7F8E820D7F8EC201344C7F8EC304FF043
:101A900000024FF00003D7E93A4529464A1029468B
:101AA000CB17C7E94C23D7E94C23134302D14FF09E
:101AB00000036AE1D7F81C31C3F58013DA17BB6263
:101AC000FA62D7E90A34C7E94834D7F820315B1005
:101AD000C7F88430D7F82031DB07C7F88030D7E962
:101AE0004A23D7E920010446A41ABC6761EB03032B
:101AF000FB67D7E91E4522462B46911839625B41A8
:101B00007B62D7E9082321465118B96129464B4128
:101B1000FB614FF000024FF00003D7E90689494608
:101B20008B01414643EA916341468A014146891847
:101B30003961494643EB010179614FF000024FF0F2
:101B40000003D7E9048949468B00C44643EA9C73E5
:101B500041468A0010461946034622469B18BB6040
:101B60000B462A4642EB0303FB604FF000024FF0A6
:101B70000003D7E9028949468B00C44643EA9C73B7
:101B800041468A0010461946034622469B183B6789
:101B90002B460A4642EB03037B67D7E94C23D7E980
:101BA0001C01FFF73DFA02460B46C7E94823D7F868
:101BB0001431B3F922301BB2DA17BB66FA66D7E9E3
:101BC00048234FF000004FF00001500B40EAC340A3
:101BD0005913D7E91A452B4600FB03F2234603FBB2
:101BE00001F313442246A2FB0021C7F8E410C7F812
:101BF000E020D7F8E4201344C7F8E430D7E94823BD
:101C00004FF000004FF00001500B40EAC340591361
:101C1000D7E938452B4600FB03F2234603FB01F3CB
:101C200013442246A2FB0021C7F8DC10C7F8D820D5
:101C3000D7F8DC201344C7F8DC304FF000024FF037
:101C40000003D7E9364521464A0E204629460C4670
:101C500042EAC4124B16C7E94C23D7F81431B3F942
:101C600020301BB2DA173B667A66D7F82031D7E905
:101C700018452A4602FB03F2D7F82431214601FB1E
:101C800003F31A44D7F820312146A3FB0131C7F8EA
:101C9000D410C7F8D030D7F8D430D318C7F8D43020
:101CA000D7F82031D7E934452A4602FB03F2D7F8AA
:101CB0002431214601FB03F31344D7F820212146A8
:101CC000A2FB0121C7F8CC10C7F8C820D7F8CC2058
:101CD0001344C7F8CC304FF000024FF00003D7E9AF
:101CE00032452146CA0C204629460C4642EA443277
:101CF000CB14C7E94A23D7E94801D7E94C23841814
:101D0000BC6541EB0303FB65D7E94A23D7E91645D8
:101D1000214689183965294643EB010179654FF061
:101D200000004FF00001D7E914452346180A2A465F
:101D300040EA02602B461912D7F81431B3F91E306D
:101D40001BB2DA17BB64FA644FF000024FF00003D5
:101D5000D7E912894C462301C44643EA1C73444622
:101D6000220184183C6041EB03037B60D7E9003417
:101D7000C7E94834D7E94801FEF79EFF03464FF014
:101D800087411846FFF78AF80346184607F59C77FF
:101D9000BD46BDE8B08F000080B58AB000AF786066
:101DA000396007F1100207F1140319467868FFF74C
:101DB0009CFC034687F8273097F82730002B02D089
:101DC00097F8273049E03B6907F10C013A6818465B
:101DD000FFF7C0FC38627B69F9683A681846FFF77C
:101DE000FBFCF8612449F869FFF758F803461846E8
:101DF000FEF712FB1CA3D3E9002304F0EDF8024622
:101E00000B464FF000001D49FEF7A6F902460B46AF
:101E10001046194616A3D3E90023FEF755FB0246E8
:101E20000B4610461946FEF727FE0346BB61386A8B
:101E3000FFF7D0F803461AB23B681A80F869FFF73B
:101E4000C9F803461AB23B685A80B869FFF7C2F86E
:101E500003461AB23B689A80002318462837BD46CD
:101E600080BD00BFAFF3008024D1CB28965BC83F74
:101E70000000000040A5E54000507D440000F03F18
:101E800080B485B000AF786039600023FB603B68A8
:101E9000002B06D17B6871333B6002E03B68013365
:101EA0003B603B68002B03D03B681B78202BF5D0B0
:101EB0003B681B782D2B04D13B6801333B60012329
:101EC00000E00023FB720DE0FA6813469B00134408
:101ED0005B001A463B681B78303B1344FB603B6851
:101EE00001333B603B68002B07D03B681B782F2BEE
:101EF00003D93B681B78392BE6D9FB7A002B02D03B
:101F0000FB685B4200E0FB6818461437BD4680BCA6
:101F100070470000B0B588B000AF786039604FF00E
:101F200000024FF00003C7E906234FF000024B4BBD
:101F3000C7E904230123FB603B68002B06D17B68C3
:101F400071333B6002E03B6801333B603B68002B30
:101F500003D03B681B78202BF5D03B681B782D2BDA
:101F600024D14FF0FF33FB603B6801333B601DE041
:101F70004FF000023A4BD7E90601FEF7A5FA0246F8
:101F80000B4614461D463B681B78303B1846FEF74F
:101F900031FA02460B4620462946FEF7DFF8024694
:101FA0000B46C7E906233B6801333B603B681B785F
:101FB0002F2B03D93B681B78392BD9D93B681B7869
:101FC0002E2B2CD13B6801333B6028E04FF0000200
:101FD000234BD7E90601FEF777FA02460B46144673
:101FE0001D463B681B78303B1846FEF703FA024655
:101FF0000B4620462946FEF7B1F802460B46C7E9D4
:1020000006234FF00002164BD7E90401FEF75CFAF5
:1020100002460B46C7E904233B6801333B603B683B
:102020001B782F2B03D93B681B78392BCED9F86846
:10203000FEF7E0F9D7E90623FEF746FA02460B461B
:1020400010461946D7E90423FEF768FB02460B4603
:10205000104619462037BD46B0BD00BF0000F03F16
:102060000000244080B588B000AF78600021786817
:10207000FFF750FFC7E90601D7E90601FEF7D4FCD8
:1020800003461B4A82FB03125211DB17D31A184670
:10209000FEF7B0F902460B46C7E904234FF00002F1
:1020A000144BD7E90401FEF70FFA02460B46D7E9B5
:1020B0000601FEF751F802460B46C7E902234FF02E
:1020C00000020D4BD7E90201FEF728FB02460B4642
:1020D000D7E90401FEF742F802460B46C7E906239A
:1020E000D7E90623104619462037BD4680BD00BFFC
:1020F0001F85EB510000594000004E402DE9B043D0
:1021000082B000AF7860796891F87F10002969D1BA
:102110007B6871330622B649184603F013FF034665
:10212000002B09D07B6871330622B249184603F0B0
:1021300009FF0346002B04D17B68012283F870203D
:102140004EE07B6871330622AB49184603F0FAFE75
:102150000346002B09D07B6871330622A749184635
:1021600003F0F0FE0346002B04D17B68022283F8C3
:10217000702035E07B6871330622A149184603F0D0
:10218000E1FE0346002B09D07B68713306229D498E
:10219000184603F0D7FE0346002B04D17B680322C8
:1021A00083F870201CE07B6871330622964918463C
:1021B00003F0C8FE0346002B09D07B68713306226A
:1021C0009249184603F0BEFE0346002B04D17B68FB
:1021D000042283F8702003E07B68002283F87020DB
:1021E00001231DE2796891F87010002900F0178230
:1021F000796891F87010012940F0C1807B6893F8EC
:102200007F30013B0A2B00F2FF8101A252F823F03C
:102210003D220008B7220008C9220008F322000866
:10222000052300082F23000843230008092600087F
:1022300057230008092600086B2300087B6893F8E1
:102240007130303BDBB21A46920013445B00DAB2C5
:102250007B6893F872301344DBB2303BDAB27B68B0
:1022600083F8AA207B6893F87330303BDBB21A46C0
:10227000920013445B00DAB27B6893F87430134425
:10228000DBB2303BDAB27B6883F8AB207B6893F833
:102290007530303BDBB21A46920013445B00DAB271
:1022A0007B6893F876301344DBB2303BDAB27B685C
:1022B00083F8AC20B3E17868FFF7D4FE02460B4602
:1022C0007968C1E92223AAE17B6893F87130532B26
:1022D00005D07B6893F87130732B40F097817B6851
:1022E000D3E92223904683F000497B68C3E9228921
:1022F0008CE17868FFF7B6FE02460B467968C1E9C3
:1023000024238CE17B6893F87130572B05D07B68D0
:1023100093F87130772B40F07B817B68D3E92423DD
:10232000144683F000457B68C3E9244570E1002131
:102330007868FFF7A5FD0346DAB27B6883F8A92029
:102340006DE100217868FFF79BFD0346DAB27B68F8
:1023500083F8A82063E100217868FFF7DBFD0246DF
:102360000B467968C1E9262359E100217868FFF717
:10237000D1FD02460B467968C1E928234FE179680F
:1023800091F8701002297DD17B6893F87F30023B71
:102390000F2B5BD801A252F823F000BFDD23000809
:1023A0004D2400084D2400084D2400084D24000849
:1023B0004D2400084D2400084D2400084D24000839
:1023C0004D2400084D2400084D2400084D24000829
:1023D0001124000825240008392400080021786809
:1023E000FFF74EFD0346DAB27B6883F8A02016E1C2
:1023F000106E0008186E0008206E0008286E000895
:10240000306E0008386E0008406E0008486E000804
:1024100000217868FFF77EFD02460B467968C1E926
:102420002623FCE000217868FFF774FD02460B4686
:102430007968C1E92223F2E000217868FFF76AFD9C
:1024400002460B467968C1E92423E8E07B6893F8EB
:102450007F30022B40F2DE807B6893F87F300E2BBA
:1024600000F2D88000217868FFF70AFD02467B68F9
:1024700093F87F30033BD1B27A6813440A4683F85D
:10248000A120C7E0796891F8701003291BD17B68FF
:1024900093F87F30022B02D0032B0AD0BFE000213B
:1024A0007868FFF7EDFC0346DAB27B6883F8892091
:1024B000B5E000217868FFF7E3FC0346DAB27B68F9
:1024C00083F88820ABE0796891F87010042940F017
:1024D000A680796891F87F100239092900F29C8062
:1024E00001A050F821F000BF1125000819260008AE
:1024F0001926000819260008192600082B250008AF
:102500003F25000853250008CD250008E1250008D7
:102510007B6893F87130412B0CBF01230023DBB2A1
:102520001A467B6883F8882079E000217868FFF7F5
:10253000F1FC02460B467968C1E924236FE00021D3
:102540007868FFF7E7FC02460B467968C1E9262365
:1025500065E07B6893F87130303BDBB21A4692003D
:1025600013445B00DAB27B6893F872301344DBB239
:10257000303BDAB27B6883F889207B6893F873304C
:10258000303BDBB21A46920013445B00DAB27B6840
:1025900093F874301344DBB2303BDAB27B6883F8D3
:1025A0008A207B6893F87530303BDBB21A46920084
:1025B00013445B00DAB27B6893F876301344DBB2E5
:1025C000303BDAB27B6883F88B2028E00021786802
:1025D000FFF7A0FC02460B467968C1E928231EE0FC
:1025E000796891F87110572904D0796891F87110C1
:1025F000772913D17968D1E92801024681F0004397
:102600007968C1E9282309E000BF08E000BF06E0BF
:1026100000BF04E000BF02E000BF00E000BF0123F4
:1026200018460837BD46BDE8B08300BF80B485B00A
:1026300000AF78607B6893F871302F2B0DD97B68E1
:1026400093F87130392B08D87B6893F87130303BA0
:10265000DBB25BB21B015AB226E07B6893F87130A3
:10266000602B0DD97B6893F871307A2B08D87B6882
:1026700093F87130573BDBB25BB21B015AB213E0E7
:102680007B6893F87130402B0DD97B6893F87130DB
:102690005A2B08D87B6893F87130373BDBB25BB2BA
:1026A0001B015AB200E000227B6893F872302F2B96
:1026B0000CD97B6893F87230392B07D87B6893F874
:1026C00072305BB203F00F035BB228E07B6893F8D3
:1026D0007230602B0ED97B6893F872307A2B09D850
:1026E0007B6893F87230573BDBB25BB203F00F03A9
:1026F0005BB214E07B6893F87230402B0ED97B6894
:1027000093F872305A2B09D87B6893F87230373BB4
:10271000DBB25BB203F00F035BB200E000231343B4
:102720005BB2FB737B6893F88130FA7B9A420CBFF3
:1027300001230023DBB218461437BD4680BC704726
:1027400080B582B000AF78607B6893F87030012B61
:1027500036D17B68D3E922237968C1E900237B68FD
:10276000D3E924237968C1E902237B68D3E92623CE
:102770007968C1E904237B68D3E928237968C1E932
:1027800006237B6893F8A8207B6883F820207B6869
:1027900093F8A9207B6883F821207B6893F8AA200E
:1027A0007B6883F822207B6893F8AB207B6883F8F2
:1027B00023207B6893F8AC207B6883F8242061E0B9
:1027C0007B6893F87030022B21D17B68D3E92223F8
:1027D0007968C1E90A237B68D3E926237968C1E9CE
:1027E0000E237B68D3E924237968C1E90C237B6835
:1027F00093F8A0207B6883F840207B6803F14100B8
:102800007B68A1330C22194603F0D8FB3AE07B68C1
:1028100093F87030032B06D17B6893F888207B688F
:1028200083F84D202EE07B6893F87030042B29D17B
:102830007B68D3E926237968C1E916237B6893F87E
:1028400088207B6883F84E207B68D3E9242379684D
:10285000C1E914237B68D3E928237968C1E91823E7
:102860007B6893F889207B6883F868207B6893F8FD
:102870008A207B6883F869207B6893F88B207B68CB
:1028800083F86A20012318460837BD4680BD80B50D
:1028900082B000AF7860B0220021786803F04AFB74
:1028A000012318460837BD4680BD80B586B000AF0D
:1028B000F860B9607A60BB687B61ADE07B691B78CA
:1028C000242B28D1FB68703340220021184603F0E6
:1028D00031FBFB6893F87E300B2B00F29780FB688E
:1028E00093F87E3019467B691A78FB680B4483F8AD
:1028F0007120FB6893F87E300133DAB2FB6883F80D
:102900007E20FB6893F87E301A46FB681344002251
:1029100083F871207AE07B691B782C2B1DD1F86835
:10292000FFF7ECFBFB6893F881207B691B78534031
:10293000DAB2FB6883F88120FB68002283F87E20EE
:10294000FB68002283F87120FB6893F87F30013325
:10295000DAB2FB6883F87F2058E07B691B782A2B6A
:1029600017D1F868FFF7CAFBFB68012283F88020C3
:10297000FB68002283F87E20FB68002283F8712028
:10298000FB6893F87F300133DAB2FB6883F87F206D
:102990003CE07B691B780D2B09D1F868FFF746FEF8
:1029A0000346002B32D0F868FFF7CAFE2EE0FB6822
:1029B00093F88030002B09D1FB6893F881207B6964
:1029C0001B785340DAB2FB6883F88120FB6893F8E8
:1029D0007E300B2B1AD8FB6893F87E3019467B6942
:1029E0001A78FB680B4483F87120FB6893F87E30FB
:1029F0000133DAB2FB6883F87E20FB6893F87E30FF
:102A00001A46FB681344002283F871207B69013366
:102A10007B617B68013B7B607B68002B7FF44EAF62
:102A2000012318461837BD4680BD000080B584B02C
:102A300000AF78607B68FB6007F10C014FF0FF335B
:102A40000422034802F05CFC00BF1037BD4680BD85
:102A5000E000002080B584B000AFF860B9607A6013
:102A6000F868FFF7E3FFB868FFF7E0FF7868FFF763
:102A7000DDFF00BF1037BD4680BD000080B582B0CD
:102A800000AF78607B68184A934229D1174B1B78B6
:102A90000A2B12D0164B1B785BB2002B0DDB144BAC
:102AA0001B781A46114B1978124B9954104B1B780E
:102AB0000133DAB20E4B1A700DE00D4B1B78013367
:102AC0001A460C490C48FFF7F0FE094B00221A7019
:102AD000064B00221A7001220449034802F09BFCB5
:102AE00000BF0837BD4680BD28010020A00200209D
:102AF000A10200202002002070010020B0B58CB09F
:102B000000AF00F05DFB00F041F800F0FDF800F0D0
:102B100079F800F0A5F800F0CDF81848FFF7B7FEF7
:102B200001221749174802F076FC174800F03EF9D9
:102B30003B4619461448FEF721FC642000F0A2FB36
:102B40003B4619461048FFF727F9B7F904301846F5
:102B5000FEF79CF80446B7F902301846FEF796F8DF
:102B60000546B7F900301846FEF790F803461A46B6
:102B700029462046FFF76EFF00BFDEE77001002008
:102B8000A0020020280100208C00002080B590B019
:102B900000AF07F1180328220021184603F0CAF9F4
:102BA0003B1D00221A605A609A60DA601A610223A3
:102BB000BB610123BB621023FB6200237B6307F12F
:102BC0001803184601F03CFF0346002B01D000F02B
:102BD000E7F80F237B600023BB600023FB6000232A
:102BE0003B6100237B613B1D0021184602F0AAF9DE
:102BF0000346002B01D000F0D3F800BF4037BD469C
:102C000080BD000080B500AF124B134A1A60114B13
:102C1000124A5A600F4B00229A600E4B0022DA6073
:102C20000C4B4FF480421A610A4B00225A61094B47
:102C300000229A61074B0022DA61064B00221A62D9
:102C4000044800F097FE0346002B01D000F0A8F8DE
:102C500000BF80BD8C00002000540040A086010011
:102C600080B500AF114B124A1A60104B4FF4165248
:102C70005A600E4B00229A600C4B0022DA600B4B1C
:102C800000221A61094B0C225A61084B00229A61FA
:102C9000064B0022DA61054802F0E2FA0346002BF7
:102CA00001D000F07DF800BF80BD00BFE000002033
:102CB0000038014080B500AF114B124A1A60104B2A
:102CC0004FF416525A600E4B00229A600C4B0022B1
:102CD000DA600B4B00221A61094B0C225A61084B37
:102CE00000229A61064B0022DA61054802F0B8FA28
:102CF0000346002B01D000F053F800BF80BD00BF99
:102D0000280100200044004080B588B000AF07F1E2
:102D1000100300221A605A609A60DA601E4B9B69A9
:102D20001D4A43F0100393611B4B9B6903F0100392
:102D3000FB60FB68184B9B69174A43F004039361DF
:102D4000154B9B6903F00403BB60BB68124B9B6986
:102D5000114A43F0080393610F4B9B6903F008038A
:102D60007B607B6800224FF400510C4800F0EAFDC4
:102D70004FF400533B6101237B610023BB610223BD
:102D8000FB6107F110031946044800F05FFC00BF27
:102D90002037BD4680BD00BF00100240001001403A
:102DA00080B400AF72B600BF00BFFDE780B588B049
:102DB00004AF78600023BB73642302930123019363
:102DC00007F10E03009301236B22D021786800F0F5
:102DD00015FF0346FB73FB7B002B01D0FB7B2FE031
:102DE0001823BB73642302930123019307F10E039D
:102DF000009301231C22D021786800F0FFFE0346D7
:102E0000FB73FB7B002B01D0FB7B19E01823BB730A
:102E1000642302930123019307F10E03009301231E
:102E20001B22D021786800F0E9FE0346FB73FB7B90
:102E3000002B01D0FB7B03E0786800F005F8034627
:102E400018461037BD4680BD80B588B004AF7860A5
:102E5000642302930123019307F10F0300930123DD
:102E600000221821786800F0C3FFFB7B482B01D0BB
:102E7000012340E00023FB736423029301230193A9
:102E800007F10F03009301230A221821786800F04C
:102E9000B5FE642000F0F6F90F23FB736423029360
:102EA0000123019307F10F03009301230A22182144
:102EB000786800F0A3FE642000F0E4F96423029334
:102EC0000323019307F10C0300930123102218211F
:102ED000786800F08DFF1623FB73642302930123AF
:102EE000019307F10F03009301230A221821786848
:102EF00000F084FE002318461037BD4680BD000058
:102F000080B485B000AF154B9B69144A43F00103B0
:102F10009361124B9B6903F00103BB60BB680F4BCD
:102F2000DB690E4A43F08053D3610C4BDB6903F03D
:102F300080537B607B680A4B5B68FB60FB6823F017
:102F4000E063FB60FB6843F00073FB60044AFB68CE
:102F5000536000BF1437BD4680BC7047001002406C
:102F60000000014080B588B000AF786007F1100321
:102F700000221A605A609A60DA607B681B68164A01
:102F8000934225D1154B9B69144A43F00803936182
:102F9000124B9B6903F00803FB60FB68C0233B6195
:102FA00012237B610023BB610323FB6107F1100344
:102FB00019460B4800F04AFB084BDB69074A43F40B
:102FC0000013D361054BDB6903F40013BB60BB68DE
:102FD00000BF2037BD4680BD0054004000100240B5
:102FE000000C014080B58AB000AF786007F118038B
:102FF00000221A605A609A60DA607B681B683B4A5C
:10300000934232D13A4B9B69394A43F480439361EE
:10301000374B9B6903F480437B617B69344B9B692D
:10302000334A43F004039361314B9B6903F004037B
:103030003B613B694FF40073BB610223FB610323D7
:103040007B6207F1180319462A4800F0FFFA4FF493
:103050008063BB610023FB6100233B6207F118031F
:103060001946244800F0F2FA3CE07B681B68224ACB
:10307000934237D11E4BDB691D4A43F40033D361C1
:103080001B4BDB6903F40033FB60FB68184B9B6947
:10309000174A43F004039361154B9B6903F0040343
:1030A000BB60BB680423BB610223FB6103237B621B
:1030B00007F1180319460F4800F0C8FA0823BB614E
:1030C0000023FB6100233B6207F1180319460948FE
:1030D00000F0BCFA00220021262000F0CEF92620C4
:1030E00000F0E7F900BF2837BD4680BD0038014039
:1030F00000100240000801400044004080B400AFCE
:1031000000BFFDE780B400AF00BFFDE780B400AFB3
:1031100000BFFDE780B400AF00BFFDE780B400AFA3
:1031200000BFFDE780B400AF00BFBD4680BC704764
:1031300080B400AF00BFBD4680BC704780B400AF14
:1031400000BFBD4680BC704780B500AF00F07EF880
:1031500000BF80BD80B500AF024802F081F900BF1A
:1031600080BD00BF2801002080B400AF00BFBD4675
:1031700080BC7047FFF7F8FF0B480C490C4A00234E
:1031800002E0D458C4500433C4188C42F9D3094A1D
:10319000094C002301E013600432A242FBD302F089
:1031A000E9FEFFF7ABFC7047000000207000002034
:1031B000C06E000870000020E0030020FEE7000061
:1031C00080B500AF084B1B68074A43F0100313603B
:1031D000032000F047F90F2000F008F8FFF790FEF9
:1031E0000023184680BD00BF0020024080B582B099
:1031F00000AF7860124B1A68124B1B7819464FF4D7
:103200007A73B3FBF1F3B2FBF3F3184600F05FF906
:103210000346002B01D001230EE07B680F2B0AD858
:10322000002279684FF0FF3000F027F9064A7B68EA
:103230001360002300E0012318460837BD4680BD17
:1032400000000020080000200400002080B400AF2F
:10325000054B1B781A46054B1B681344034A136041
:1032600000BFBD4680BC704708000020A4020020BB
:1032700080B400AF024B1B681846BD4680BC704747
:10328000A402002080B584B000AF7860FFF7F0FFA3
:10329000B8607B68FB60FB68B3F1FF3F05D00A4B69
:1032A0001B781A46FB681344FB6000BFFFF7E0FF82
:1032B0000246BB68D31AFA689A42F7D800BF00BF2B
:1032C0001037BD4680BD00BF0800002080B485B027
:1032D00000AF78607B6803F00703FB600C4BDB6892
:1032E000BB60BA684FF6FF031340BB60FB681A026D
:1032F000BB68134343F0BF6343F40033BB60044A2D
:10330000BB68D36000BF1437BD4680BC704700BFA8
:1033100000ED00E080B400AF044BDB681B0A03F053
:1033200007031846BD4680BC704700BF00ED00E0B3
:1033300080B483B000AF0346FB7197F90730002BD0
:103340000BDBFB7903F01F02064997F907305B0995
:10335000012000FA02F241F8232000BF0C37BD46DD
:1033600080BC704700E100E080B483B000AF03464A
:103370003960FB7197F90730002B0ADB3B68DAB242
:103380000C4997F907301201D2B20B4483F800239D
:103390000AE03B68DAB20849FB7903F00F03043B0B
:1033A0001201D2B20B441A7600BF0C37BD4680BC66
:1033B000704700BF00E100E000ED00E080B489B09C
:1033C00000AFF860B9607A60FB6803F00703FB6147
:1033D000FB69C3F10703042B28BF0423BB61FB690E
:1033E0000433062B02D9FB69033B00E000237B6119
:1033F0004FF0FF32BB6902FA03F3DA43BB681A40AD
:103400007B699A404FF0FF317B6901FA03F3D9439E
:103410007B680B40134318462437BD4680BC704779
:1034200080B582B000AF78607B68013BB3F1807FEC
:1034300001D301230FE00A4A7B68013B53600F214F
:103440004FF0FF30FFF790FF054B00229A60044BCE
:1034500007221A60002318460837BD4680BD00BF0A
:1034600010E000E080B582B000AF78607868FFF7C8
:103470002DFF00BF0837BD4680BD80B586B000AFC8
:103480000346B9607A60FB7300237B61FFF742FF5C
:1034900078617A68B9687869FFF790FF024697F912
:1034A0000F3011461846FFF75FFF00BF1837BD46C3
:1034B00080BD80B582B000AF0346FB7197F907303D
:1034C0001846FFF735FF00BF0837BD4680BD80B501
:1034D00082B000AF78607868FFF7A2FF0346184615
:1034E0000837BD4680BD80B485B000AF786000234A
:1034F000FB737B6893F82130DBB2022B08D07B682A
:1035000004229A637B68002283F82020012320E0B4
:103510007B681B681A687B681B6822F00E021A60C1
:103520007B681B681A687B681B6822F001021A60BE
:103530007B681A6C7B68DB6B012101FA02F25A602E
:103540007B68012283F821207B68002283F82020F9
:10355000FB7B18461437BD4680BC704780B584B0ED
:1035600000AF78600023FB737B6893F82130DBB2F7
:10357000022B05D07B6804229A630123FB7351E080
:103580007B681B681A687B681B6822F00E021A6051
:103590007B681B681A687B681B6822F001021A604E
:1035A0007B681B68224A934229D07B681B68214AAA
:1035B000934222D07B681B681F4A93421AD07B68D3
:1035C0001B681E4A934212D07B681B681C4A9342B8
:1035D0000AD07B681B681B4A934202D14FF48013C8
:1035E0000EE04FF080730BE04FF4803308E04FF4AF
:1035F000805305E04FF4807302E0102300E00123C4
:10360000114A53607B68012283F821207B680022E5
:1036100083F820207B685B6B002B03D07B685B6B9F
:1036200078689847FB7B18461037BD4680BD00BFC1
:10363000080002401C0002403000024044000240EA
:10364000580002406C0002400000024080B48BB081
:1036500000AF7860396000237B6200233B6261E148
:1036600001227B6A02FA03F3FB613B681B68FA697B
:103670001340BB61BA69FB699A4240F050813B68D4
:103680005B68974A93425ED0954A934275D8954AB3
:10369000934258D0934A93426FD8934A934252D060
:1036A000914A934269D8914A93424CD08F4A9342AF
:1036B00063D88F4A934246D08D4A93425DD8122BED
:1036C0002AD8122B59D801A252F823F04737000804
:1036D0002137000833370008753700087B370008AA
:1036E0007B3700087B3700087B3700087B370008F2
:1036F0007B3700087B3700087B3700087B370008E2
:103700007B3700087B3700087B3700087B370008D1
:10371000293700083D370008764A934213D02CE041
:103720003B68DB683B6229E03B68DB6804333B6253
:1037300024E03B68DB6808333B621FE03B68DB68E2
:103740000C333B621AE03B689B68002B02D10423D8
:103750003B6213E03B689B68012B05D108233B6269
:103760007B68FA691A6109E008233B627B68FA69A1
:103770005A6103E000233B6200E000BFBB69FF2BFE
:1037800001D87B6801E07B6804337B61BB69FF2B58
:1037900002D87B6A9B0002E07B6A083B9B003B618E
:1037A0007B691A680F213B6901FA03F3DB431A4076
:1037B000396A3B6901FA03F31A437B691A603B6873
:1037C0005B6803F08053002B00F0A9804A4B9B6993
:1037D000494A43F001039361474B9B6903F001039E
:1037E000BB60BB68454A7B6A9B08023352F82330B2
:1037F000FB607B6A03F003039B000F2202FA03F3D2
:10380000DB43FA681340FB607B683D4A93420DD06E
:103810007B683C4A934207D07B683B4A934201D184
:10382000022304E0032302E0012300E000237A6A7C
:1038300002F0030292009340FA681343FB602F49A1
:103840007B6A9B080233FA6841F823203B685B6877
:1038500003F48013002B06D02C4B9A682B49BB69CC
:1038600013438B6006E0294B9A68BB69DB43274909
:1038700013408B603B685B6803F40013002B06D099
:10388000224BDA682149BB691343CB6006E01F4B2A
:10389000DA68BB69DB431D491340CB603B685B685A
:1038A00003F40033002B06D0184B5A681749BB6944
:1038B00013434B6006E0154B5A68BB69DB43134961
:1038C00013404B603B685B6803F48033002B1FD0D0
:1038D0000E4B1A680D49BB6913430B601FE000BF14
:1038E00000003210000031100000221000002110F2
:1038F00000001210000011100010024000000140F2
:1039000000080140000C014000100140000401408B
:103910000B4B1A68BB69DB43094913400B607B6A98
:1039200001337B623B681A687B6A22FA03F3002B3F
:103930007FF496AE00BF00BF2C37BD4680BC7047F9
:103940000004014080B483B000AF78600B467B80F8
:1039500013467B707B78002B03D07A887B681A61D2
:1039600003E07B881A047B681A6100BF0C37BD46F0
:1039700080BC704780B584B000AF78607B68002B56
:1039800001D101232BE17B6893F83D30DBB2002BA2
:1039900006D17B68002283F83C207868FFF7E2FAC2
:1039A0007B68242283F83D207B681B681A687B684B
:1039B0001B6822F001021A607B681B681A687B682A
:1039C0001B6842F400421A607B681B681A687B68B7
:1039D0001B6822F400421A6001F0FCFBF8607B686F
:1039E0005B68814A934207D8FB68804A934294BF40
:1039F00001230023DBB206E0FB687D4A934294BFBB
:103A000001230023DBB2002B01D00123E7E0FB6898
:103A1000784AA2FB03239B0CBB607B681B685B6836
:103A200023F03F017B681B68BA680A435A607B68D1
:103A30001B681B6A23F03F017B685B686A4A9342FC
:103A400002D8BB68013309E0BB684FF4967202FBF1
:103A500003F3694AA2FB03239B0901337A681268C6
:103A60000B4313627B681B68DB6923F44F4222F02F
:103A7000FF027B685B685C498B4219D8FB68591E62
:103A80007B685B685B00B1FBF3F3591C40F6FC7389
:103A90000B40002B0AD0FB68591E7B685B685B00FB
:103AA000B1FBF3F30133C3F30B0351E004234FE005
:103AB0007B689B68002B11D1FB68581E7B68596896
:103AC0000B465B000B44B0FBF3F30133C3F30B0372
:103AD000002B0CBF01230023DBB212E0FB68581E51
:103AE0007B6859680B469B000B4499000B44B0FB64
:103AF000F3F30133C3F30B03002B0CBF01230023AB
:103B0000DBB2002B01D0012322E07B689B68002BF5
:103B10000ED1FB68581E7B6859680B465B000B444E
:103B2000B0FBF3F30133C3F30B0343F400430FE0A3
:103B3000FB68581E7B6859680B469B000B44990034
:103B40000B44B0FBF3F30133C3F30B0343F44043E3
:103B5000796809681343CB617B681B681B6823F095
:103B6000C0017B68DA697B681B6A1A437B681B6843
:103B70000A431A607B681B689B6823F4034323F0A5
:103B8000FF037A6811697A68D26811437A6812680B
:103B90000B4393607B681B68DB6823F0FF017B6845
:103BA0005A697B689B691A437B681B680A43DA6021
:103BB0007B681B681A687B681B6842F001021A6008
:103BC0007B6800221A647B68202283F83D207B6892
:103BD00000221A637B68002283F83E2000231846E7
:103BE0001037BD4680BD00BFA08601007F841E0047
:103BF000FF083D0083DE1B43D34D621080B588B0C3
:103C000002AFF860084611461A4603467B810B4610
:103C10003B811346FB80FFF72BFB7861FB6893F831
:103C20003D30DBB2202B40F0D9807B690093192313
:103C300001226D49F86800F0CDFC0346002B01D04D
:103C40000223CCE0FB6893F83C30012B01D1022326
:103C5000C5E0FB68012283F83C20FB681B681B68F9
:103C600003F00103012B07D0FB681B681A68FB688F
:103C70001B6842F001021A60FB681B681A68FB6847
:103C80001B6822F400621A60FB68212283F83D2041
:103C9000FB68402283F83E20FB6800221A64FB6820
:103CA0003A6A5A62FB68BA8C5A85FB685B8D9AB295
:103CB000FB681A85FB684D4ADA62F8883A89798987
:103CC0007B690193BB6A00930346F86800F004FB2C
:103CD0000346002B52D0012381E07A69B96AF86863
:103CE00000F092FD0346002B0DD0FB681B6C042BEB
:103CF00007D1FB681B681A68FB681B6842F40072F6
:103D00001A6001236BE0FB685B6A1A78FB681B682A
:103D10001A61FB685B6A5A1CFB685A62FB681B8D60
:103D2000013B9AB2FB681A85FB685B8D9BB2013B35
:103D30009AB2FB685A85FB681B685B6903F0040351
:103D4000042B1BD1FB681B8D002B17D0FB685B6A13
:103D50001A78FB681B681A61FB685B6A5A1CFB686F
:103D60005A62FB681B8D013B9AB2FB681A85FB689F
:103D70005B8D9BB2013B9AB2FB685A85FB681B8D39
:103D8000002BAAD17A69B96AF86800F085FD03466C
:103D9000002B0DD0FB681B6C042B07D1FB681B6844
:103DA0001A68FB681B6842F400721A60012316E06F
:103DB000FB681B681A68FB681B6842F400721A6093
:103DC000FB68202283F83D20FB68002283F83E2018
:103DD000FB68002283F83C20002300E00223184601
:103DE0001837BD4680BD00BF020010000000FFFF75
:103DF00080B58CB002AFF860084611461A460346FB
:103E00007B810B463B811346FB8000233B62FFF71F
:103E10002FFA7862FB6893F83D30DBB2202B40F03C
:103E200050827B6A0093192301228249F86800F0CE
:103E3000D1FB0346002B01D0022343E2FB6893F839
:103E40003C30012B01D102233CE2FB68012283F8C4
:103E50003C20FB681B681B6803F00103012B07D0A3
:103E6000FB681B681A68FB681B6842F001021A6055
:103E7000FB681B681A68FB681B6822F400621A6002
:103E8000FB68222283F83D20FB68402283F83E2015
:103E9000FB6800221A64FB683A6B5A62FB68BA8EB0
:103EA0005A85FB685B8D9AB2FB681A85FB68624A8B
:103EB000DA62F8883A8979897B6A0193BB6B00934F
:103EC0000346F86800F09EFA0346002B01D0012358
:103ED000F8E1FB681B8D002B13D10023FB61FB680D
:103EE0001B685B69FB61FB681B689B69FB61FB6985
:103EF000FB681B681A68FB681B6842F400721A6052
:103F0000CCE1FB681B8D012B1ED1FB681B681A6876
:103F1000FB681B6822F480621A6072B600BF00233F
:103F2000BB61FB681B685B69BB61FB681B689B69C5
:103F3000BB61BB69FB681B681A68FB681B6842F4BD
:103F400000721A6062B635E0FB681B8D022B1ED131
:103F5000FB681B681A68FB681B6842F400621A6001
:103F600072B600BF00237B61FB681B685B697B61E5
:103F7000FB681B689B697B617B69FB681B681A682F
:103F8000FB681B6822F480621A6062B612E0FB686C
:103F90001B681A68FB681B6842F480621A60002381
:103FA0003B61FB681B685B693B61FB681B689B6945
:103FB0003B613B6972E1FB681B8D032B00F21F81A3
:103FC000FB681B8D012B23D17A6AB96BF86800F06E
:103FD000ABFC0346002B01D0012373E1FB681B6897
:103FE0001A69FB685B6AD2B21A70FB685B6A5A1C7A
:103FF000FB685A62FB681B8D013B9AB2FB681A850D
:10400000FB685B8D9BB2013B9AB2FB685A8545E128
:10401000FB681B8D022B52D17B6A0093BB6B002285
:104020000649F86800F0D6FA0346002B08D00123B1
:1040300048E100BF020010000000FFFF0400010083
:1040400072B600BFFB681B681A68FB681B6842F405
:1040500000721A60FB681B681A69FB685B6AD2B25F
:104060001A70FB685B6A5A1CFB685A62FB681B8DFE
:10407000013B9AB2FB681A85FB685B8D9BB2013BE2
:104080009AB2FB685A8562B600BFFB681B681A6962
:10409000FB685B6AD2B21A70FB685B6A5A1CFB68E9
:1040A0005A62FB681B8D013B9AB2FB681A85FB685C
:1040B0005B8D9BB2013B9AB2FB685A85EEE07B6A4E
:1040C0000093BB6B00228149F86800F083FA034635
:1040D000002B01D00123F5E0FB681B681A68FB6820
:1040E0001B6822F480621A6072B600BFFB681B680E
:1040F0001A69FB685B6AD2B21A70FB685B6A5A1C69
:10410000FB685A62FB681B8D013B9AB2FB681A85FB
:10411000FB685B8D9BB2013B9AB2FB685A856C4B86
:104120001B68DB086B4AA2FB03231A0A13469B0099
:104130001344DA00D31A3B623B6A013B3B623B6AA1
:10414000002B18D1FB6800221A63FB68202283F839
:104150003D20FB68002283F83E20FB681B6C43F087
:104160002002FB681A6462B600BFFB68002283F875
:104170003C200123A6E0FB681B685B6903F0040395
:10418000042BD9D1FB681B681A68FB681B6842F4D2
:1041900000721A60FB681B681A69FB685B6AD2B21E
:1041A0001A70FB685B6A5A1CFB685A62FB681B8DBD
:1041B000013B9AB2FB681A85FB685B8D9BB2013BA1
:1041C0009AB2FB685A8562B600BFFB681B681A6921
:1041D000FB685B6AD2B21A70FB685B6A5A1CFB68A8
:1041E0005A62FB681B8D013B9AB2FB681A85FB681B
:1041F0005B8D9BB2013B9AB2FB685A854EE07A6AAE
:10420000B96BF86800F090FB0346002B01D0012346
:1042100058E0FB681B681A69FB685B6AD2B21A70C7
:10422000FB685B6A5A1CFB685A62FB681B8D013B8A
:104230009AB2FB681A85FB685B8D9BB2013B9AB210
:10424000FB685A85FB681B685B6903F00403042B59
:1042500024D1FB681B8D032B07D1FB681B681A68F0
:10426000FB681B6822F480621A60FB681B681A698D
:10427000FB685B6AD2B21A70FB685B6A5A1CFB6807
:104280005A62FB681B8D013B9AB2FB681A85FB687A
:104290005B8D9BB2013B9AB2FB685A85FB681B8D14
:1042A000002B7FF488AEFB68202283F83D20FB685A
:1042B000002283F83E20FB68002283F83C20002384
:1042C00000E0022318462837BD4680BD04000100E7
:1042D0000000002089B5F81480B588B002AFF860FE
:1042E000084611461A4603467B810B463B8113461E
:1042F000FB80FB681B681A68FB681B6842F48072CD
:104300001A607B6A00933B6A00224FF00111F86843
:1043100000F060F90346002B0DD0FB681B681B689A
:1043200003F48073B3F5807F03D1FB684FF4007210
:104330001A6403235FE07B89DBB21A46FB681B68C3
:1043400002F0FE021A617B6A3A6A2D49F86800F0B1
:10435000BBF90346002B01D001234CE000237B6115
:10436000FB681B685B697B61FB681B689B697B6101
:104370007B697A6A396AF86800F046FA0346002BCE
:104380000DD0FB681B6C042B07D1FB681B681A68F7
:10439000FB681B6842F400721A6001232BE0FB8863
:1043A000012B05D13B89DAB2FB681B681A6121E059
:1043B0003B891B0A9BB2DAB2FB681B681A617A6AF6
:1043C000396AF86800F020FA0346002B0DD0FB682C
:1043D0001B6C042B07D1FB681B681A68FB681B6801
:1043E00042F400721A60012305E03B89DAB2FB68EF
:1043F0001B681A61002318461837BD4680BD00BFF0
:104400000200010080B588B002AFF860084611468E
:104410001A4603467B810B463B811346FB80FB68B3
:104420001B681A68FB681B6842F480621A60FB68AC
:104430001B681A68FB681B6842F480721A607B6A0A
:1044400000933B6A00224FF00111F86800F0C2F8B7
:104450000346002B0DD0FB681B681B6803F48073B8
:10446000B3F5807F03D1FB684FF400721A64032315
:10447000AAE07B89DBB21A46FB681B6802F0FE02E9
:104480001A617B6A3A6A5249F86800F01DF90346DE
:10449000002B01D0012397E000237B61FB681B68A0
:1044A0005B697B61FB681B689B697B617B697A6ADE
:1044B000396AF86800F0A8F90346002B0DD0FB68B4
:1044C0001B6C042B07D1FB681B681A68FB681B6810
:1044D00042F400721A60012376E0FB88012B05D1BB
:1044E0003B89DAB2FB681B681A6121E03B891B0A31
:1044F0009BB2DAB2FB681B681A617A6A396AF8689B
:1045000000F082F90346002B0DD0FB681B6C042BD6
:1045100007D1FB681B681A68FB681B6842F40072CD
:104520001A60012350E03B89DAB2FB681B681A610C
:104530007A6A396AF86800F067F90346002B0DD0F3
:10454000FB681B6C042B07D1FB681B681A68FB68AF
:104550001B6842F400721A60012335E0FB681B6897
:104560001A68FB681B6842F480721A607B6A0093C9
:104570003B6A00224FF00111F86800F02BF8034667
:10458000002B0DD0FB681B681B6803F48073B3F528
:10459000807F03D1FB684FF400721A64032313E099
:1045A0007B89DBB243F00103DAB2FB681B681A6156
:1045B0007B6A3A6A0649F86800F086F80346002BE1
:1045C00001D0012300E0002318461837BD4680BD06
:1045D0000200010080B584B000AFF860B9603B60B4
:1045E0001346FB7148E03B68B3F1FF3F44D0FEF750
:1045F0003FFE0246BB69D31A3A689A4202D33B682F
:10460000002B39D1BB681B0CDBB2012B0DD1FB6831
:104610001B685B69DA43BB6813409BB2002B0CBF7D
:1046200001230023DBB21A460CE0FB681B689B6980
:10463000DA43BB6813409BB2002B0CBF012300235D
:10464000DBB21A46FB799A4216D1FB6800221A6344
:10465000FB68202283F83D20FB68002283F83E207F
:10466000FB681B6C43F02002FB681A64FB680022A5
:1046700083F83C20012323E0BB681B0CDBB2012B39
:104680000DD1FB681B685B69DA43BB6813409BB2C2
:10469000002B0CBF01230023DBB21A460CE0FB68A1
:1046A0001B689B69DA43BB6813409BB2002B0CBFAD
:1046B00001230023DBB21A46FB799A4293D00023F0
:1046C00018461037BD4680BD80B584B000AFF86095
:1046D000B9607A603B6071E0FB681B685B6903F45A
:1046E0008063B3F5806F23D1FB681B681A68FB6891
:1046F0001B6842F400721A60FB681B686FF48062EA
:104700005A61FB6800221A63FB68202283F83D206F
:10471000FB68002283F83E20FB681B6C43F0040218
:10472000FB681A64FB68002283F83C20012367E0E1
:104730007B68B3F1FF3F41D0FEF79AFD02463B682C
:10474000D31A7A689A4202D37B68002B36D1BB68B1
:104750001B0CDBB2012B0CD1FB681B685B69DA43D5
:10476000BB6813409BB2002B14BF01230023DBB2B4
:104770000BE0FB681B689B69DA43BB6813409BB284
:10478000002B14BF01230023DBB2002B16D0FB68E3
:1047900000221A63FB68202283F83D20FB68002278
:1047A00083F83E20FB681B6C43F02002FB681A6410
:1047B000FB68002283F83C20012321E0BB681B0C2E
:1047C000DBB2012B0CD1FB681B685B69DA43BB6869
:1047D00013409BB2002B14BF01230023DBB20BE07C
:1047E000FB681B689B69DA43BB6813409BB2002BD4
:1047F00014BF01230023DBB2002B7FF46DAF002335
:1048000018461037BD4680BD80B584B000AFF86053
:10481000B9607A6034E0F86800F0E3F80346002BF2
:1048200001D0012334E0BB68B3F1FF3F28D0FEF78D
:104830001FFD02467B68D31ABA689A4202D3BB684E
:10484000002B1DD1FB681B685B6903F08003802B84
:1048500016D0FB6800221A63FB68202283F83D20F3
:10486000FB68002283F83E20FB681B6C43F02002AB
:10487000FB681A64FB68002283F83C20012307E0F0
:10488000FB681B685B6903F08003802BC3D10023A6
:1048900018461037BD4680BD80B584B000AFF860C3
:1048A000B9607A6034E0F86800F09BF80346002BAA
:1048B00001D0012334E0BB68B3F1FF3F28D0FEF7FD
:1048C000D7FC02467B68D31ABA689A4202D3BB6807
:1048D000002B1DD1FB681B685B6903F00403042BEC
:1048E00016D0FB6800221A63FB68202283F83D2063
:1048F000FB68002283F83E20FB681B6C43F020021B
:10490000FB681A64FB68002283F83C20012307E05F
:10491000FB681B685B6903F00403042BC3D100230D
:1049200018461037BD4680BD80B584B000AFF86032
:10493000B9607A6049E0FB681B685B6903F01003AB
:10494000102B19D1FB681B686FF010025A61FB68CD
:1049500000221A63FB68202283F83D20FB680022B6
:1049600083F83E20FB681A6CFB681A64FB6800221F
:1049700083F83C20012330E0FEF77AFC02467B6896
:10498000D31ABA689A4202D3BB68002B1DD1FB68C8
:104990001B685B6903F04003402B16D0FB680022C4
:1049A0001A63FB68202283F83D20FB68002283F80D
:1049B0003E20FB681B6C43F02002FB681A64FB6816
:1049C000002283F83C20012307E0FB681B685B6939
:1049D00003F04003402BAED1002318461037BD46EC
:1049E00080BD80B483B000AF78607B681B685B6972
:1049F00003F48063B3F5806F1BD17B681B686FF491
:104A000080625A617B6800221A637B68202283F8E7
:104A10003D207B68002283F83E207B681B6C43F0BE
:104A200004027B681A647B68002283F83C2001231F
:104A300000E0002318460C37BD4680BC70470000DC
:104A400080B586B000AF78607B68002B01D1012370
:104A500072E27B681B6803F00103002B00F0878083
:104A6000924B5B6803F00C03042B0CD08F4B5B68FC
:104A700003F00C03082B12D18C4B5B6803F48033DA
:104A8000B3F5803F0BD1894B1B6803F40033002B37
:104A90006CD07B685B68002B68D101234CE27B689B
:104AA0005B68B3F5803F06D1804B1B687F4A43F4B7
:104AB000803313602EE07B685B68002B0CD17B4B4E
:104AC0001B687A4A23F480331360784B1B68774A5B
:104AD00023F4802313601DE07B685B68B3F5A02F8F
:104AE0000CD1724B1B68714A43F4802313606F4BE7
:104AF0001B686E4A43F4803313600BE06B4B1B68FA
:104B00006A4A23F480331360684B1B68674A23F4B6
:104B1000802313607B685B68002B13D0FEF7A8FB33
:104B2000386108E0FEF7A4FB02463B69D31A642B08
:104B300001D9032300E25D4B1B6803F40033002B13
:104B4000F0D014E0FEF794FB386108E0FEF790FB2C
:104B500002463B69D31A642B01D90323ECE1534B82
:104B60001B6803F40033002BF0D100E000BF7B682A
:104B70001B6803F00203002B63D04C4B5B6803F00F
:104B80000C03002B0BD0494B5B6803F00C03082B84
:104B90001CD1464B5B6803F48033002B16D1434B8A
:104BA0001B6803F00203002B05D07B681B69012BF7
:104BB00001D00123C0E13D4B1B6823F0F8027B6864
:104BC0005B69DB00394913430B603AE07B681B6982
:104BD000002B20D0364B01221A60FEF749FB3861CA
:104BE00008E0FEF745FB02463B69D31A022B01D9C8
:104BF0000323A1E12D4B1B6803F00203002BF0D02F
:104C00002A4B1B6823F0F8027B685B69DB002749AD
:104C100013430B6015E0264B00221A60FEF728FBB9
:104C2000386108E0FEF724FB02463B69D31A022BE9
:104C300001D9032380E11D4B1B6803F00203002B05
:104C4000F0D17B681B6803F00803002B3AD07B6827
:104C50009B69002B19D0174B01221A60FEF708FB45
:104C6000386108E0FEF704FB02463B69D31A022BC9
:104C700001D9032360E10D4B5B6A03F00203002BB3
:104C8000F0D0012000F0CEFA1CE00A4B00221A609E
:104C9000FEF7EEFA38610FE0FEF7EAFA02463B69EA
:104CA000D31A022B08D9032346E100BF00100240AB
:104CB0000000424280044242924B5B6A03F00203CE
:104CC000002BE9D17B681B6803F00403002B00F084
:104CD000A6800023FB758B4BDB6903F08053002B10
:104CE0000DD1884BDB69874A43F08053D361854BF4
:104CF000DB6903F08053BB60BB680123FB75824B0B
:104D00001B6803F48073002B18D17F4B1B687E4A0D
:104D100043F480731360FEF7ABFA386108E0FEF7E6
:104D2000A7FA02463B69D31A642B01D9032303E196
:104D3000754B1B6803F48073002BF0D07B68DB6835
:104D4000012B06D16F4B1B6A6E4A43F001031362BD
:104D50002DE07B68DB68002B0CD16A4B1B6A694A2B
:104D600023F001031362674B1B6A664A23F00403B6
:104D700013621CE07B68DB68052B0CD1614B1B6A5E
:104D8000604A43F0040313625E4B1B6A5D4A43F0C2
:104D9000010313620BE05B4B1B6A5A4A23F00103C9
:104DA0001362584B1B6A574A23F0040313627B6853
:104DB000DB68002B15D0FEF75BFA38610AE0FEF7DE
:104DC00057FA02463B69D31A41F28832934201D91D
:104DD0000323B1E04B4B1B6A03F00203002BEED020
:104DE00014E0FEF745FA38610AE0FEF741FA0246A0
:104DF0003B69D31A41F28832934201D903239BE0E5
:104E0000404B1B6A03F00203002BEED1FB7D012B0C
:104E100005D13C4BDB693B4A23F08053D3617B686F
:104E2000DB69002B00F08780364B5B6803F00C03D6
:104E3000082B61D07B68DB69022B46D1334B002203
:104E40001A60FEF715FA386108E0FEF711FA02461B
:104E50003B69D31A022B01D903236DE0294B1B6850
:104E600003F00073002BF0D17B681B6AB3F5803F21
:104E700008D1244B5B6823F400327B689B6821498E
:104E800013434B601F4B5B6823F474127B68196AF1
:104E90007B685B6A0B431B4913434B601B4B01222E
:104EA0001A60FEF7E5F9386108E0FEF7E1F902461D
:104EB0003B69D31A022B01D903233DE0114B1B6838
:104EC00003F00073002BF0D035E0104B00221A6085
:104ED000FEF7CEF9386108E0FEF7CAF902463B69F1
:104EE000D31A022B01D9032326E0064B1B6803F0DB
:104EF0000073002BF0D11EE07B68DB69012B07D12A
:104F0000012319E00010024000700040600042429E
:104F10000B4B5B68FB60FB6803F480327B681B6AA9
:104F20009A4206D1FB6803F470127B685B6A9A426E
:104F300001D0012300E0002318461837BD4680BD8C
:104F40000010024080B584B000AF786039607B68A3
:104F5000002B01D10123D0E06A4B1B6803F007034B
:104F60003A689A4210D9674B1B6823F007026549DB
:104F70003B6813430B60634B1B6803F007033A68FD
:104F80009A4201D00123B8E07B681B6803F002035A
:104F9000002B20D07B681B6803F00403002B05D096
:104FA000594B5B68584A43F4E06353607B681B6865
:104FB00003F00803002B05D0534B5B68524A43F4BF
:104FC00060535360504B5B6823F0F0027B689B6832
:104FD0004D4913434B607B681B6803F00103002BB2
:104FE00040D07B685B68012B07D1474B1B6803F4FB
:104FF0000033002B15D101237FE07B685B68022B17
:1050000007D1414B1B6803F00073002B09D101232A
:1050100073E03D4B1B6803F00203002B01D1012319
:105020006BE0394B5B6823F003027B685B683649B1
:1050300013434B60FEF71CF9F8600AE0FEF718F91D
:105040000246FB68D31A41F28832934201D9032306
:1050500053E02D4B5B6803F00C027B685B689B00A0
:105060009A42EBD1274B1B6803F007033A689A4238
:1050700010D2244B1B6823F0070222493B681343DC
:105080000B60204B1B6803F007033A689A4201D07B
:10509000012332E07B681B6803F00403002B08D077
:1050A000194B5B6823F4E0627B68DB6816491343A5
:1050B0004B607B681B6803F00803002B09D0124B80
:1050C0005B6823F460527B681B69DB000E49134365
:1050D0004B6000F021F802460B4B5B681B0903F0A4
:1050E0000F030A49CB5C22FA03F3094A1360094B08
:1050F0001B681846FEF77AF8002318461037BD469D
:1051000080BD00BF0020024000100240506E000829
:10511000000000200400002080B487B000AF00230E
:10512000FB600023BB6000237B6100237B600023C6
:105130003B611E4B5B68FB60FB6803F00C03042BB8
:1051400002D0082B03D027E0194B3B6127E0FB6816
:105150009B0C03F00F03174AD35C7B60FB6803F4DE
:105160008033002B10D0114B5B685B0C03F0010304
:10517000114AD35CBB607B680D4A03FB02F2BB683B
:10518000B2FBF3F37B6104E07B680C4A02FB03F3A0
:105190007B617B693B6102E0054B3B6100BF3B6982
:1051A00018461C37BD4680BC704700BF0010024047
:1051B00000127A00686E0008786E000800093D0051
:1051C00080B400AF024B1B681846BD4680BC7047D8
:1051D0000000002080B500AFFFF7F2FF0246054B4C
:1051E0005B681B0A03F007030349CB5C22FA03F355
:1051F000184680BD00100240606E000880B500AF08
:10520000FFF7DEFF0246054B5B68DB0A03F007038E
:105210000349CB5C22FA03F3184680BD001002401C
:10522000606E000880B485B000AF78600A4B1B68E0
:105230000A4AA2FB03235B0A7A6802FB03F3FB60C2
:1052400000BFFB685A1EFA60002BF9D100BF00BFF7
:105250001437BD4680BC704700000020D34D62105B
:1052600080B582B000AF78607B68002B01D101234C
:1052700042E07B6893F84130DBB2002B06D17B68BB
:10528000002283F840207868FDF7ACFE7B6824227A
:1052900083F841207B681B68DA687B681B6822F40E
:1052A0000052DA60786800F0B7FD7B681B681A6905
:1052B0007B681B6822F490421A617B681B685A69FC
:1052C0007B681B6822F02A025A617B681B68DA68D7
:1052D0007B681B6842F40052DA607B6800225A64E3
:1052E0007B68202283F841207B68202283F84220BB
:1052F0007B6800225A63002318460837BD4680BDEC
:1053000080B58AB002AFF860B9603B601346FB809D
:1053100000237B61FB6893F84130DBB2202B75D111
:10532000BB68002B02D0FB88002B01D101236EE06B
:10533000FB6800225A64FB68212283F84120FDF7B4
:1053400097FF7861FB68FA889A84FB68FA88DA84A8
:10535000FB689B68B3F5805F08D1FB681B69002B75
:1053600004D10023FB61BB68BB6103E0BB68FB6148
:105370000023BB612EE03B6800937B690022802103
:10538000F86800F01CFB0346002B05D0FB682022C8
:1053900083F8412003233AE0FB69002B0BD1BB6962
:1053A0001B881A46FB681B68C2F308025A60BB6977
:1053B0000233BB6107E0FB691A78FB681B685A601F
:1053C000FB690133FB61FB68DB8C9BB2013B9AB24A
:1053D000FB68DA84FB68DB8C9BB2002BCBD13B688B
:1053E00000937B6900224021F86800F0E8FA034648
:1053F000002B05D0FB68202283F84120032306E020
:10540000FB68202283F84120002300E00223184695
:105410002037BD4680BD80B584B000AFF860B9606C
:105420001346FB80FB6893F84230DBB2202B12D18D
:10543000BB68002B02D0FB88002B01D101230BE0BD
:10544000FB6800221A63FB881A46B968F86800F006
:105450000FFB034600E0022318461037BD4680BD0F
:1054600080B5BAB000AF78607B681B681B68C7F86E
:10547000E4307B681B68DB68C7F8E0307B681B683A
:105480005B69C7F8DC300023C7F8D8300023C7F8C1
:10549000D430D7F8E43003F00F03C7F8D830D7F88A
:1054A000D830002B0FD1D7F8E43003F02003002BC5
:1054B00009D0D7F8E03003F02003002B03D0786840
:1054C00000F0ECFB5BE2D7F8D830002B00F0DE8078
:1054D000D7F8DC3003F00103002B06D1D7F8E03019
:1054E00003F49073002B00F0D180D7F8E43003F080
:1054F0000103002B0BD0D7F8E03003F48073002BAE
:1055000005D07B685B6C43F001027B685A64D7F876
:10551000E43003F00403002B0BD0D7F8DC3003F0A9
:105520000103002B05D07B685B6C43F002027B68B3
:105530005A64D7F8E43003F00203002B0BD0D7F8FD
:10554000DC3003F00103002B05D07B685B6C43F07B
:1055500004027B685A64D7F8E43003F00803002B98
:1055600011D0D7F8E03003F02003002B05D1D7F895
:10557000DC3003F00103002B05D07B685B6C43F04B
:1055800008027B685A647B685B6C002B00F0F28138
:10559000D7F8E43003F02003002B08D0D7F8E03030
:1055A00003F02003002B02D0786800F077FB7B68C3
:1055B0001B685B6903F04003002B14BF0123002329
:1055C000DBB2C7F8D4307B685B6C03F00803002BB8
:1055D00003D1D7F8D430002B4FD0786800F081FA8F
:1055E0007B681B685B6903F04003002B41D07B683C
:1055F0001B681433C7F89C30D7F89C3053E8003F41
:10560000C7F89830D7F8983023F04003C7F8D03067
:105610007B681B681433D7F8D020C7F8A820C7F8D8
:10562000A430D7F8A410D7F8A82041E80023C7F881
:10563000A030D7F8A030002BD9D17B68DB6B002BD2
:1056400013D07B68DB6B7E4A5A637B68DB6B184642
:10565000FDF784FF0346002B16D07B68DB6B5B6B8A
:105660007A68D26B104698470EE0786800F093F99C
:105670000AE0786800F08FF906E0786800F08BF9AE
:105680007B6800225A6475E100BF73E17B681B6B85
:10569000012B40F04F81D7F8E43003F01003002BCA
:1056A00000F04881D7F8E03003F01003002B00F041
:1056B00041810023BB607B681B681B68BB607B6803
:1056C0001B685B68BB60BB687B681B685B6903F039
:1056D0004003002B00F0B6807B68DB6B1B685B68C7
:1056E000A7F8BE30B7F8BE30002B00F045817B68CC
:1056F0009B8DB7F8BE209A4280F03E817B68B7F858
:10570000BE20DA857B68DB6B9B69202B00F08880EC
:105710007B681B680C33C7F88830D7F8883053E8AB
:10572000003FC7F88430D7F8843023F48073C7F87B
:10573000B8307B681B680C33D7F8B820C7F89420C2
:10574000C7F89030D7F89010D7F8942041E800239C
:10575000C7F88C30D7F88C30002BD9D17B681B6808
:1057600014337B677B6F53E8003F3B673B6F23F04D
:105770000103C7F8B4307B681B681433D7F8B42032
:10578000C7F88020FB67F96FD7F8802041E8002335
:10579000BB67BB6F002BE1D17B681B6814333B6692
:1057A0003B6E53E8003FFB65FB6D23F04003C7F8F9
:1057B000B0307B681B681433D7F8B020FA66BB663C
:1057C000B96EFA6E41E800237B667B6E002BE3D155
:1057D0007B68202283F842207B6800221A637B6862
:1057E0001B680C33FB64FB6C53E8003FBB64BB6C71
:1057F00023F01003C7F8AC307B681B680C33D7F874
:10580000AC20BA657B65796DBA6D41E800233B65D4
:105810003B6D002BE3D17B68DB6B1846FDF763FE25
:105820007B6802225A637B689A8D7B68DB8D9BB212
:10583000D31A9BB21946786800F0B6F89CE000BF16
:10584000A75B00087B689A8D7B68DB8D9BB2D31ABF
:10585000A7F8CE307B68DB8D9BB2002B00F08E80EA
:10586000B7F8CE30002B00F089807B681B680C33C2
:10587000BB63BB6B53E8003F7B637B6B23F490738C
:10588000C7F8C8307B681B680C33D7F8C8207A6427
:105890003B64396C7A6C41E80023FB63FB6B002BA3
:1058A000E3D17B681B6814337B627B6A53E8003F5B
:1058B0003B623B6A23F00103C7F8C4307B681B6876
:1058C0001433D7F8C4203A63FB62F96A3A6B41E8B3
:1058D0000023BB62BB6A002BE3D17B68202283F8E4
:1058E00042207B6800221A637B681B680C333B6193
:1058F0003B6953E8003FFB60FB6823F01003C7F8E7
:10590000C0307B681B680C33D7F8C020FA61BB61DC
:10591000B969FA6941E800237B617B69002BE3D117
:105920007B6802225A63B7F8CE301946786800F0D7
:105930003BF823E0D7F8E43003F08003002B09D0D4
:10594000D7F8E03003F08003002B03D0786800F034
:105950003EF914E0D7F8E43003F04003002B0ED0FA
:10596000D7F8E03003F04003002B08D0786800F04F
:105970007DF904E000BF02E000BF00E000BFE837AF
:10598000BD4680BD80B483B000AF786000BF0C37E7
:10599000BD4680BC704780B483B000AF786000BF64
:1059A0000C37BD4680BC704780B483B000AF7860D0
:1059B0000B467B8000BF0C37BD4680BC704780B56E
:1059C00086B000AFF860B9603B601346FB713BE006
:1059D0003B6AB3F1FF3F37D0FDF74AFC02463B6814
:1059E000D31A3A6A9A4202D33B6A002B01D10323AD
:1059F0003AE0FB681B68DB6803F00403002B23D04C
:105A0000BB68802B20D0BB68402B1DD0FB681B6877
:105A10001B6803F00803082B16D100237B61FB6889
:105A20001B681B687B61FB681B685B687B617B692B
:105A3000F86800F056F8FB6808225A64FB680022F8
:105A400083F8402001230FE0FB681B681A68BB68DD
:105A50001340BA689A420CBF01230023DBB21A46F6
:105A6000FB799A42B4D0002318461837BD4680BD52
:105A700080B485B000AFF860B9601346FB80FB6866
:105A8000BA689A62FB68FA889A85FB68FA88DA85B0
:105A9000FB6800225A64FB68222283F84220FB68DC
:105AA0001B69002B07D0FB681B68DA68FB681B6862
:105AB00042F48072DA60FB681B685A69FB681B68F5
:105AC00042F001025A61FB681B68DA68FB681B68D8
:105AD00042F02002DA60002318461437BD4680BC2D
