:020000040800F2
:1000000000280020D50600087106000879060008BF
:10001000810600088906000891060008000000001B
:100020000000000000000000000000009906000829
:10003000A506000800000000B1060008BD06000883
:100040001D0700081D0700081D0700081D07000800
:100050001D0700081D0700081D0700081D070008F0
:100060001D0700081D0700081D0700081D070008E0
:100070001D0700081D0700081D0700081D070008D0
:100080001D0700081D0700081D0700081D070008C0
:100090001D0700081D0700081D0700081D070008B0
:1000A0001D0700081D0700081D0700081D070008A0
:1000B0001D0700081D070008000000001D070008BC
:1000C0001D07000800000000000000001D070008D8
:1000D000000000001D0700081D07000800000000C8
:1000E0001D0700081D0700081D070008000000008C
:1000F0000000000000000000000000000000000000
:0C01000000000000000000005FF808F1A3
:10010C0010B5054C237833B9044B13B10448AFF345
:10011C0000800123237010BD0C00002000000000A3
:10012C00A82A000808B5034B1BB103490348AFF3D9
:10013C00008008BD0000000010000020A82A000864
:10014C00034613F8012B002AFBD1181A013870470B
:10015C0080B582B000AF78607868FFF7F1FF034696
:10016C009AB24FF0FF337968034802F097FA00BF58
:10017C000837BD4680BD00BF7C00002090B585B01F
:10018C0000AF00F0C7FA00F01FF800F0B1F800F073
:10019C0085F800F055F80A4800F0FCF8094B3C468D
:1001AC000FCB07C4238002341B0C23703B4618462C
:1001BC00FFF7CEFF642000F00FFB00BFF6E700BF97
:1001CC0028000020C02A000880B590B000AF07F1CD
:1001DC00180328220021184602F034FC3B1D002293
:1001EC001A605A609A60DA601A610223BB610123BB
:1001FC00BB621023FB6200237B6307F118031846D4
:10020C0001F0ECFD0346002B01D000F0BDF80F23EC
:10021C007B600023BB600023FB6000233B61002359
:10022C007B613B1D0021184602F05AF80346002B57
:10023C0001D000F0A9F800BF4037BD4680BD0000DA
:10024C0080B500AF124B134A1A60114B124A5A6018
:10025C000F4B00229A600E4B0022DA600C4B4FF4CD
:10026C0080421A610A4B00225A61094B00229A61A2
:10027C00074B0022DA61064B00221A62044800F098
:10028C0047FD0346002B01D000F07EF800BF80BD77
:10029C002800002000540040A086010080B500AF6B
:1002AC00114B124A1A60104B4FF416525A600E4BF7
:1002BC0000229A600C4B0022DA600B4B00221A6170
:1002CC00094B0C225A61084B00229A61064B002202
:1002DC00DA61054802F092F90346002B01D000F0D8
:1002EC0053F800BF80BD00BF7C00002000380140E7
:1002FC0080B588B000AF07F1100300221A605A6075
:10030C009A60DA601E4B9B691D4A43F0100393619F
:10031C001B4B9B6903F01003FB60FB68184B9B693C
:10032C00174A43F004039361154B9B6903F00403D4
:10033C00BB60BB68124B9B69114A43F00803936185
:10034C000F4B9B6903F008037B607B6800224FF422
:10035C0000510C4800F0C4FC4FF400533B610123E6
:10036C007B610023BB610223FB6107F1100319467B
:10037C00044800F039FB00BF2037BD4680BD00BFEC
:10038C00001002400010014080B400AF72B600BFF4
:10039C0000BFFDE780B588B004AF78600023BB7365
:1003AC00642302930123019307F10E0300930123AD
:1003BC006B22D021786800F0EFFD0346FB73FB7BCA
:1003CC00002B01D0FB7B2FE01823BB73642302931B
:1003DC000123019307F10E03009301231C22D0216A
:1003EC00786800F0D9FD0346FB73FB7B002B01D032
:1003FC00FB7B19E01823BB73642302930123019345
:10040C0007F10E03009301231B22D021786800F022
:10041C00C3FD0346FB73FB7B002B01D0FB7B03E08E
:10042C00786800F005F8034618461037BD4680BDC5
:10043C0080B588B004AF78606423029301230193E4
:10044C0007F10F030093012300221821786800F0B4
:10045C009DFEFB7B482B01D0012340E00023FB7366
:10046C00642302930123019307F10F0300930123EB
:10047C000A221821786800F08FFD642000F0ACF996
:10048C000F23FB73642302930123019307F10F03E2
:10049C00009301230A221821786800F07DFD642066
:1004AC0000F09AF9642302930323019307F10C03E0
:1004BC000093012310221821786800F067FE1623A0
:1004CC00FB73642302930123019307F10F03009341
:1004DC0001230A221821786800F05EFD00231846DB
:1004EC001037BD4680BD000080B485B000AF154B01
:1004FC009B69144A43F001039361124B9B6903F00F
:10050C000103BB60BB680F4BDB690E4A43F08053A1
:10051C00D3610C4BDB6903F080537B607B680A4B27
:10052C005B68FB60FB6823F0E063FB60FB6843F0F7
:10053C000073FB60044AFB68536000BF1437BD4670
:10054C0080BC7047001002400000014080B588B0AC
:10055C0000AF786007F1100300221A605A609A60AD
:10056C00DA607B681B68164A934225D1154B9B6950
:10057C00144A43F008039361124B9B6903F0080380
:10058C00FB60FB68C0233B6112237B610023BB61D2
:10059C000323FB6107F1100319460B4800F024FA02
:1005AC00084BDB69074A43F40013D361054BDB6945
:1005BC0003F40013BB60BB6800BF2037BD4680BD91
:1005CC000054004000100240000C014080B588B07F
:1005DC0000AF786007F1100300221A605A609A602D
:1005EC00DA607B681B681C4A934231D11B4B9B69B8
:1005FC001A4A43F480439361184B9B6903F480437C
:10060C00FB60FB68154B9B69144A43F00403936130
:10061C00124B9B6903F00403BB60BB684FF400737F
:10062C003B6102237B610323FB6107F11003194635
:10063C000B4800F0D9F94FF480633B6100237B61D8
:10064C000023BB6107F110031946054800F0CCF9F3
:10065C0000BF2037BD4680BD00380140001002406D
:10066C000008014080B400AF00BFFDE780B400AFCC
:10067C0000BFFDE780B400AF00BFFDE780B400AF62
:10068C0000BFFDE780B400AF00BFFDE780B400AF52
:10069C0000BFBD4680BC704780B400AF00BFBD46F4
:1006AC0080BC704780B400AF00BFBD4680BC7047B3
:1006BC0080B500AF00F074F800BF80BD80B400AF0F
:1006CC0000BFBD4680BC7047FFF7F8FF0B480C49D4
:1006DC000C4A002302E0D458C4500433C4188C4292
:1006EC00F9D3094A094C002301E013600432A242F9
:1006FC00FBD302F0AFF9FFF741FD7047000000207B
:10070C000C0000200C2B00080C000020C80000205E
:10071C00FEE7000080B500AF084B1B68074A43F0AA
:10072C0010031360032000F02BF90F2000F008F8E1
:10073C00FFF7DAFE0023184680BD00BF0020024000
:10074C0080B582B000AF7860124B1A68124B1B78E0
:10075C0019464FF47A73B3FBF1F3B2FBF3F318467B
:10076C0000F035F90346002B01D001230EE07B6825
:10077C000F2B0AD8002279684FF0FF3000F00BF9EC
:10078C00064A7B681360002300E0012318460837F3
:10079C00BD4680BD000000200800002004000020A1
:1007AC0080B400AF054B1B781A46054B1B681344ED
:1007BC00034A136000BFBD4680BC70470800002090
:1007CC00C400002080B400AF024B1B681846BD4625
:1007DC0080BC7047C400002080B584B000AF786046
:1007EC00FFF7F0FFB8607B68FB60FB68B3F1FF3F7D
:1007FC0005D00A4B1B781A46FB681344FB6000BFFC
:10080C00FFF7E0FF0246BB68D31AFA689A42F7D8A2
:10081C0000BF00BF1037BD4680BD00BF08000020E0
:10082C0080B485B000AF78607B6803F00703FB6091
:10083C000C4BDB68BB60BA684FF6FF031340BB6020
:10084C00FB681A02BB68134343F0BF6343F40033E5
:10085C00BB60044ABB68D36000BF1437BD4680BC84
:10086C00704700BF00ED00E080B400AF044BDB68C4
:10087C001B0A03F007031846BD4680BC704700BF37
:10088C0000ED00E080B483B000AF03463960FB712B
:10089C0097F90730002B0ADB3B68DAB20C4997F961
:1008AC0007301201D2B20B4483F800230AE03B68F4
:1008BC00DAB20849FB7903F00F03043B1201D2B200
:1008CC000B441A7600BF0C37BD4680BC704700BF86
:1008DC0000E100E000ED00E080B489B000AFF8600A
:1008EC00B9607A60FB6803F00703FB61FB69C3F135
:1008FC000703042B28BF0423BB61FB690433062BBD
:10090C0002D9FB69033B00E000237B614FF0FF320F
:10091C00BB6902FA03F3DA43BB681A407B699A405D
:10092C004FF0FF317B6901FA03F3D9437B680B402D
:10093C00134318462437BD4680BC704780B582B03F
:10094C0000AF78607B68013BB3F1807F01D301235A
:10095C000FE00A4A7B68013B53600F214FF0FF30D8
:10096C00FFF790FF054B00229A60044B07221A6098
:10097C00002318460837BD4680BD00BF10E000E0DC
:10098C0080B582B000AF78607868FFF749FF00BF90
:10099C000837BD4680BD80B586B000AF0346B96050
:1009AC007A60FB7300237B61FFF75EFF78617A68E6
:1009BC00B9687869FFF790FF024697F90F30114636
:1009CC001846FFF75FFF00BF1837BD4680BD80B5E6
:1009DC0082B000AF78607868FFF7B0FF0346184626
:1009EC000837BD4680BD000080B48BB000AF786086
:1009FC00396000237B6200233B6261E101227B6A48
:100A0C0002FA03F3FB613B681B68FA691340BB6194
:100A1C00BA69FB699A4240F050813B685B68974A1F
:100A2C0093425ED0954A934275D8954A934258D0DA
:100A3C00934A93426FD8934A934252D0914A93422D
:100A4C0069D8914A93424CD08F4A934263D88F4ACB
:100A5C00934246D08D4A93425DD8122B2AD8122B42
:100A6C0059D801A252F823F0EF0A0008C90A00086D
:100A7C00DB0A00081D0B0008230B0008230B0008E1
:100A8C00230B0008230B0008230B0008230B000882
:100A9C00230B0008230B0008230B0008230B000872
:100AAC00230B0008230B0008230B0008D10A0008B5
:100ABC00E50A0008764A934213D02CE03B68DB68C9
:100ACC003B6229E03B68DB6804333B6224E03B6813
:100ADC00DB6808333B621FE03B68DB680C333B622E
:100AEC001AE03B689B68002B02D104233B6213E0A5
:100AFC003B689B68012B05D108233B627B68FA6934
:100B0C001A6109E008233B627B68FA695A6103E0C9
:100B1C0000233B6200E000BFBB69FF2B01D87B6860
:100B2C0001E07B6804337B61BB69FF2B02D87B6AD5
:100B3C009B0002E07B6A083B9B003B617B691A6867
:100B4C000F213B6901FA03F3DB431A40396A3B6915
:100B5C0001FA03F31A437B691A603B685B6803F084
:100B6C008053002B00F0A9804A4B9B69494A43F003
:100B7C0001039361474B9B6903F00103BB60BB68A6
:100B8C00454A7B6A9B08023352F82330FB607B6A30
:100B9C0003F003039B000F2202FA03F3DB43FA6812
:100BAC001340FB607B683D4A93420DD07B683C4A06
:100BBC00934207D07B683B4A934201D1022304E065
:100BCC00032302E0012300E000237A6A02F003020F
:100BDC0092009340FA681343FB602F497B6A9B0891
:100BEC000233FA6841F823203B685B6803F48013F6
:100BFC00002B06D02C4B9A682B49BB6913438B6096
:100C0C0006E0294B9A68BB69DB43274913408B608C
:100C1C003B685B6803F40013002B06D0224BDA68A8
:100C2C002149BB691343CB6006E01F4BDA68BB69F3
:100C3C00DB431D491340CB603B685B6803F4003316
:100C4C00002B06D0184B5A681749BB6913434B60ED
:100C5C0006E0154B5A68BB69DB43134913404B60E4
:100C6C003B685B6803F48033002B1FD00E4B1A6873
:100C7C000D49BB6913430B601FE000BF000032102D
:100C8C000000311000002210000021100000121092
:100C9C00000011100010024000000140000801404B
:100CAC00000C014000100140000401400B4B1A687D
:100CBC00BB69DB43094913400B607B6A01337B62E0
:100CCC003B681A687B6A22FA03F3002B7FF496AE1A
:100CDC0000BF00BF2C37BD4680BC704700040140EC
:100CEC0080B483B000AF78600B467B8013467B707A
:100CFC007B78002B03D07A887B681A6103E07B88B1
:100D0C001A047B681A6100BF0C37BD4680BC704763
:100D1C0080B584B000AF78607B68002B01D10123D3
:100D2C002BE17B6893F83D30DBB2002B06D17B685E
:100D3C00002283F83C207868FFF708FC7B682422AB
:100D4C0083F83D207B681B681A687B681B6822F05F
:100D5C0001021A607B681B681A687B681B6842F486
:100D6C0000421A607B681B681A687B681B6822F457
:100D7C0000421A6001F0FCFBF8607B685B68814AFA
:100D8C00934207D8FB68804A934294BF0123002307
:100D9C00DBB206E0FB687D4A934294BF012300233B
:100DAC00DBB2002B01D00123E7E0FB68784AA2FB01
:100DBC0003239B0CBB607B681B685B6823F03F01C3
:100DCC007B681B68BA680A435A607B681B681B6A9D
:100DDC0023F03F017B685B686A4A934202D8BB6888
:100DEC00013309E0BB684FF4967202FB03F3694AC6
:100DFC00A2FB03239B0901337A6812680B4313622D
:100E0C007B681B68DB6923F44F4222F0FF027B688E
:100E1C005B685C498B4219D8FB68591E7B685B6820
:100E2C005B00B1FBF3F3591C40F6FC730B40002B39
:100E3C000AD0FB68591E7B685B685B00B1FBF3F35F
:100E4C000133C3F30B0351E004234FE07B689B6831
:100E5C00002B11D1FB68581E7B6859680B465B0050
:100E6C000B44B0FBF3F30133C3F30B03002B0CBFA8
:100E7C0001230023DBB212E0FB68581E7B68596823
:100E8C000B469B000B4499000B44B0FBF3F301336E
:100E9C00C3F30B03002B0CBF01230023DBB2002B8D
:100EAC0001D0012322E07B689B68002B0ED1FB68EC
:100EBC00581E7B6859680B465B000B44B0FBF3F380
:100ECC000133C3F30B0343F400430FE0FB68581EDC
:100EDC007B6859680B469B000B4499000B44B0FB94
:100EEC00F3F30133C3F30B0343F44043796809680C
:100EFC001343CB617B681B681B6823F0C0017B68C4
:100F0C00DA697B681B6A1A437B681B680A431A60A0
:100F1C007B681B689B6823F4034323F0FF037A6808
:100F2C0011697A68D26811437A6812680B4393602E
:100F3C007B681B68DB6823F0FF017B685A697B6860
:100F4C009B691A437B681B680A43DA607B681B68E1
:100F5C001A687B681B6842F001021A607B680022E9
:100F6C001A647B68202283F83D207B6800221A6378
:100F7C007B68002283F83E20002318461037BD46BC
:100F8C0080BD00BFA08601007F841E00FF083D00CD
:100F9C0083DE1B43D34D621080B588B002AFF8607E
:100FAC00084611461A4603467B810B463B81134685
:100FBC00FB80FFF707FC7861FB6893F83D30DBB2F0
:100FCC00202B40F0D9807B690093192301226D49B5
:100FDC00F86800F0CDFC0346002B01D00223CCE0D6
:100FEC00FB6893F83C30012B01D10223C5E0FB6870
:100FFC00012283F83C20FB681B681B6803F001038B
:10100C00012B07D0FB681B681A68FB681B6842F051
:10101C0001021A60FB681B681A68FB681B6822F4E3
:10102C0000621A60FB68212283F83D20FB68402295
:10103C0083F83E20FB6800221A64FB683A6A5A6205
:10104C00FB68BA8C5A85FB685B8D9AB2FB681A8573
:10105C00FB684D4ADA62F8883A8979897B69019391
:10106C00BB6A00930346F86800F004FB0346002BB0
:10107C0052D0012381E07A69B96AF86800F092FDD8
:10108C000346002B0DD0FB681B6C042B07D1FB68AF
:10109C001B681A68FB681B6842F400721A60012313
:1010AC006BE0FB685B6A1A78FB681B681A61FB686B
:1010BC005B6A5A1CFB685A62FB681B8D013B9AB237
:1010CC00FB681A85FB685B8D9BB2013B9AB2FB688F
:1010DC005A85FB681B685B6903F00403042B1BD166
:1010EC00FB681B8D002B17D0FB685B6A1A78FB68BA
:1010FC001B681A61FB685B6A5A1CFB685A62FB68C6
:10110C001B8D013B9AB2FB681A85FB685B8D9BB209
:10111C00013B9AB2FB685A85FB681B8D002BAAD148
:10112C007A69B96AF86800F085FD0346002B0DD08A
:10113C00FB681B6C042B07D1FB681B681A68FB68E7
:10114C001B6842F400721A60012316E0FB681B68EE
:10115C001A68FB681B6842F400721A60FB68202254
:10116C0083F83D20FB68002283F83E20FB680022B8
:10117C0083F83C20002300E0022318461837BD46B4
:10118C0080BD00BF020010000000FFFF80B58CB0D6
:10119C0002AFF860084611461A4603467B810B469F
:1011AC003B811346FB8000233B62FFF70BFB78620D
:1011BC00FB6893F83D30DBB2202B40F050827B6A09
:1011CC000093192301228249F86800F0D1FB0346F1
:1011DC00002B01D0022343E2FB6893F83C30012B37
:1011EC0001D102233CE2FB68012283F83C20FB681E
:1011FC001B681B6803F00103012B07D0FB681B68FD
:10120C001A68FB681B6842F001021A60FB681B68D5
:10121C001A68FB681B6822F400621A60FB682222C1
:10122C0083F83D20FB68402283F83E20FB680022B7
:10123C001A64FB683A6B5A62FB68BA8E5A85FB6873
:10124C005B8D9AB2FB681A85FB68624ADA62F88891
:10125C003A8979897B6A0193BB6B00930346F868E2
:10126C0000F09EFA0346002B01D00123F8E1FB6845
:10127C001B8D002B13D10023FB61FB681B685B6982
:10128C00FB61FB681B689B69FB61FB69FB681B6866
:10129C001A68FB681B6842F400721A60CCE1FB68A8
:1012AC001B8D012B1ED1FB681B681A68FB681B6821
:1012BC0022F480621A6072B600BF0023BB61FB6827
:1012CC001B685B69BB61FB681B689B69BB61BB6985
:1012DC00FB681B681A68FB681B6842F400721A6092
:1012EC0062B635E0FB681B8D022B1ED1FB681B68B8
:1012FC001A68FB681B6842F400621A6072B600BF81
:10130C0000237B61FB681B685B697B61FB681B6866
:10131C009B697B617B69FB681B681A68FB681B68AF
:10132C0022F480621A6062B612E0FB681B681A68CD
:10133C00FB681B6842F480621A6000233B61FB6807
:10134C001B685B693B61FB681B689B693B613B6984
:10135C0072E1FB681B8D032B00F21F81FB681B8D58
:10136C00012B23D17A6AB96BF86800F0ABFC034609
:10137C00002B01D0012373E1FB681B681A69FB6821
:10138C005B6AD2B21A70FB685B6A5A1CFB685A62C1
:10139C00FB681B8D013B9AB2FB681A85FB685B8D61
:1013AC009BB2013B9AB2FB685A8545E1FB681B8DE9
:1013BC00022B52D17B6A0093BB6B00220649F86862
:1013CC0000F0D6FA0346002B08D0012348E100BFF9
:1013DC00020010000000FFFF0400010072B600BF05
:1013EC00FB681B681A68FB681B6842F400721A6081
:1013FC00FB681B681A69FB685B6AD2B21A70FB68DF
:10140C005B6A5A1CFB685A62FB681B8D013B9AB2E3
:10141C00FB681A85FB685B8D9BB2013B9AB2FB683B
:10142C005A8562B600BFFB681B681A69FB685B6A69
:10143C00D2B21A70FB685B6A5A1CFB685A62FB6872
:10144C001B8D013B9AB2FB681A85FB685B8D9BB2C6
:10145C00013B9AB2FB685A85EEE07B6A0093BB6B4A
:10146C0000228149F86800F083FA0346002B01D072
:10147C000123F5E0FB681B681A68FB681B6822F403
:10148C0080621A6072B600BFFB681B681A69FB6841
:10149C005B6AD2B21A70FB685B6A5A1CFB685A62B0
:1014AC00FB681B8D013B9AB2FB681A85FB685B8D50
:1014BC009BB2013B9AB2FB685A856C4B1B68DB08EC
:1014CC006B4AA2FB03231A0A13469B001344DA004F
:1014DC00D31A3B623B6A013B3B623B6A002B18D13F
:1014EC00FB6800221A63FB68202283F83D20FB680E
:1014FC00002283F83E20FB681B6C43F02002FB6843
:10150C001A6462B600BFFB68002283F83C200123FA
:10151C00A6E0FB681B685B6903F00403042BD9D1BC
:10152C00FB681B681A68FB681B6842F400721A603F
:10153C00FB681B681A69FB685B6AD2B21A70FB689D
:10154C005B6A5A1CFB685A62FB681B8D013B9AB2A2
:10155C00FB681A85FB685B8D9BB2013B9AB2FB68FA
:10156C005A8562B600BFFB681B681A69FB685B6A28
:10157C00D2B21A70FB685B6A5A1CFB685A62FB6831
:10158C001B8D013B9AB2FB681A85FB685B8D9BB285
:10159C00013B9AB2FB685A854EE07A6AB96BF868DF
:1015AC0000F090FB0346002B01D0012358E0FB68B0
:1015BC001B681A69FB685B6AD2B21A70FB685B6ABB
:1015CC005A1CFB685A62FB681B8D013B9AB2FB6884
:1015DC001A85FB685B8D9BB2013B9AB2FB685A85FE
:1015EC00FB681B685B6903F00403042B24D1FB68C4
:1015FC001B8D032B07D1FB681B681A68FB681B68E3
:10160C0022F480621A60FB681B681A69FB685B6ACB
:10161C00D2B21A70FB685B6A5A1CFB685A62FB6890
:10162C001B8D013B9AB2FB681A85FB685B8D9BB2E4
:10163C00013B9AB2FB685A85FB681B8D002B7FF42B
:10164C0088AEFB68202283F83D20FB68002283F8DB
:10165C003E20FB68002283F83C20002300E002239C
:10166C0018462837BD4680BD04000100000000204C
:10167C0089B5F81480B588B002AFF86008461146F9
:10168C001A4603467B810B463B811346FB80FB6865
:10169C001B681A68FB681B6842F480721A607B6ACC
:1016AC0000933B6A00224FF00111F86800F060F9DA
:1016BC000346002B0DD0FB681B681B6803F480737A
:1016CC00B3F5807F03D1FB684FF400721A640323D7
:1016DC005FE07B89DBB21A46FB681B6802F0FE02F6
:1016EC001A617B6A3A6A2D49F86800F0BBF9034627
:1016FC00002B01D001234CE000237B61FB681B68AD
:10170C005B697B61FB681B689B697B617B697A6A9F
:10171C00396AF86800F046FA0346002B0DD0FB68D6
:10172C001B6C042B07D1FB681B681A68FB681B68D1
:10173C0042F400721A6001232BE0FB88012B05D1C7
:10174C003B89DAB2FB681B681A6121E03B891B0AF2
:10175C009BB2DAB2FB681B681A617A6A396AF8685C
:10176C0000F020FA0346002B0DD0FB681B6C042BF9
:10177C0007D1FB681B681A68FB681B6842F400728F
:10178C001A60012305E03B89DAB2FB681B681A6119
:10179C00002318461837BD4680BD00BF020001006B
:1017AC0080B588B002AFF860084611461A46034669
:1017BC007B810B463B811346FB80FB681B681A68D8
:1017CC00FB681B6842F480621A60FB681B681A682D
:1017DC00FB681B6842F480721A607B6A00933B6A58
:1017EC0000224FF00111F86800F0C2F80346002BFC
:1017FC000DD0FB681B681B6803F48073B3F5807F06
:10180C0003D1FB684FF400721A640323AAE07B89AE
:10181C00DBB21A46FB681B6802F0FE021A617B6A97
:10182C003A6A5249F86800F01DF90346002B01D0C2
:10183C00012397E000237B61FB681B685B697B617C
:10184C00FB681B689B697B617B697A6A396AF868FB
:10185C0000F0A8F90346002B0DD0FB681B6C042B81
:10186C0007D1FB681B681A68FB681B6842F400729E
:10187C001A60012376E0FB88012B05D13B89DAB293
:10188C00FB681B681A6121E03B891B0A9BB2DAB228
:10189C00FB681B681A617A6A396AF86800F082F989
:1018AC000346002B0DD0FB681B6C042B07D1FB6887
:1018BC001B681A68FB681B6842F400721A600123EB
:1018CC0050E03B89DAB2FB681B681A617A6A396AA4
:1018DC00F86800F067F90346002B0DD0FB681B6C11
:1018EC00042B07D1FB681B681A68FB681B6842F461
:1018FC0000721A60012335E0FB681B681A68FB68EC
:10190C001B6842F480721A607B6A00933B6A002267
:10191C004FF00111F86800F02BF80346002B0DD0A6
:10192C00FB681B681B6803F48073B3F5807F03D1DD
:10193C00FB684FF400721A64032313E07B89DBB25B
:10194C0043F00103DAB2FB681B681A617B6A3A6ADE
:10195C000649F86800F086F80346002B01D00123F5
:10196C0000E0002318461837BD4680BD0200010078
:10197C0080B584B000AFF860B9603B601346FB7172
:10198C0048E03B68B3F1FF3F44D0FEF71BFF024633
:10199C00BB69D31A3A689A4202D33B68002B39D1FF
:1019AC00BB681B0CDBB2012B0DD1FB681B685B69A0
:1019BC00DA43BB6813409BB2002B0CBF01230023FE
:1019CC00DBB21A460CE0FB681B689B69DA43BB6808
:1019DC0013409BB2002B0CBF01230023DBB21A4631
:1019EC00FB799A4216D1FB6800221A63FB6820220D
:1019FC0083F83D20FB68002283F83E20FB681B6CBB
:101A0C0043F02002FB681A64FB68002283F83C2038
:101A1C00012323E0BB681B0CDBB2012B0DD1FB684F
:101A2C001B685B69DA43BB6813409BB2002B0CBF8D
:101A3C0001230023DBB21A460CE0FB681B689B6990
:101A4C00DA43BB6813409BB2002B0CBF012300236D
:101A5C00DBB21A46FB799A4293D000231846103712
:101A6C00BD4680BD80B584B000AFF860B9607A60C7
:101A7C003B6071E0FB681B685B6903F48063B3F542
:101A8C00806F23D1FB681B681A68FB681B6842F4E3
:101A9C0000721A60FB681B686FF480625A61FB6805
:101AAC0000221A63FB68202283F83D20FB68002289
:101ABC0083F83E20FB681B6C43F00402FB681A643D
:101ACC00FB68002283F83C20012367E07B68B3F1BC
:101ADC00FF3F41D0FEF776FE02463B68D31A7A6888
:101AEC009A4202D37B68002B36D1BB681B0CDBB24D
:101AFC00012B0CD1FB681B685B69DA43BB68134094
:101B0C009BB2002B14BF01230023DBB20BE0FB685C
:101B1C001B689B69DA43BB6813409BB2002B14BF54
:101B2C0001230023DBB2002B16D0FB6800221A63C2
:101B3C00FB68202283F83D20FB68002283F83E20BE
:101B4C00FB681B6C43F02002FB681A64FB680022E4
:101B5C0083F83C20012321E0BB681B0CDBB2012B7A
:101B6C000CD1FB681B685B69DA43BB6813409BB202
:101B7C00002B14BF01230023DBB20BE0FB681B68B6
:101B8C009B69DA43BB6813409BB2002B14BF012343
:101B9C000023DBB2002B7FF46DAF00231846103707
:101BAC00BD4680BD80B584B000AFF860B9607A6086
:101BBC0034E0F86800F0E3F80346002B01D0012371
:101BCC0034E0BB68B3F1FF3F28D0FEF7FBFD0246C3
:101BDC007B68D31ABA689A4202D3BB68002B1DD11A
:101BEC00FB681B685B6903F08003802B16D0FB68D5
:101BFC0000221A63FB68202283F83D20FB68002238
:101C0C0083F83E20FB681B6C43F02002FB681A64CF
:101C1C00FB68002283F83C20012307E0FB681B686B
:101C2C005B6903F08003802BC3D100231846103767
:101C3C00BD4680BD80B584B000AFF860B9607A60F5
:101C4C0034E0F86800F09BF80346002B01D0012328
:101C5C0034E0BB68B3F1FF3F28D0FEF7B3FD02467A
:101C6C007B68D31ABA689A4202D3BB68002B1DD189
:101C7C00FB681B685B6903F00403042B16D0FB683C
:101C8C0000221A63FB68202283F83D20FB680022A7
:101C9C0083F83E20FB681B6C43F02002FB681A643F
:101CAC00FB68002283F83C20012307E0FB681B68DB
:101CBC005B6903F00403042BC3D1002318461037CF
:101CCC00BD4680BD80B584B000AFF860B9607A6065
:101CDC0049E0FB681B685B6903F01003102B19D1FA
:101CEC00FB681B686FF010025A61FB6800221A63D4
:101CFC00FB68202283F83D20FB68002283F83E20FD
:101D0C00FB681A6CFB681A64FB68002283F83C20A1
:101D1C00012330E0FEF756FD02467B68D31ABA6801
:101D2C009A4202D3BB68002B1DD1FB681B685B6910
:101D3C0003F04003402B16D0FB6800221A63FB68AB
:101D4C00202283F83D20FB68002283F83E20FB68AC
:101D5C001B6C43F02002FB681A64FB68002283F8BA
:101D6C003C20012307E0FB681B685B6903F0400320
:101D7C00402BAED1002318461037BD4680BD80B431
:101D8C0083B000AF78607B681B685B6903F4806389
:101D9C00B3F5806F1BD17B681B686FF480625A614E
:101DAC007B6800221A637B68202283F83D207B68C5
:101DBC00002283F83E207B681B6C43F004027B6896
:101DCC001A647B68002283F83C20012300E0002386
:101DDC0018460C37BD4680BC7047000080B586B0F5
:101DEC0000AF78607B68002B01D1012372E27B6825
:101DFC001B6803F00103002B00F08780924B5B689B
:101E0C0003F00C03042B0CD08F4B5B6803F00C031A
:101E1C00082B12D18C4B5B6803F48033B3F5803FF5
:101E2C000BD1894B1B6803F40033002B6CD07B68FF
:101E3C005B68002B68D101234CE27B685B68B3F5CF
:101E4C00803F06D1804B1B687F4A43F4803313607C
:101E5C002EE07B685B68002B0CD17B4B1B687A4AAD
:101E6C0023F480331360784B1B68774A23F4802368
:101E7C0013601DE07B685B68B3F5A02F0CD1724B2F
:101E8C001B68714A43F4802313606F4B1B686E4AC6
:101E9C0043F4803313600BE06B4B1B686A4A23F4EA
:101EAC0080331360684B1B68674A23F480231360EC
:101EBC007B685B68002B13D0FEF784FC386108E06C
:101ECC00FEF780FC02463B69D31A642B01D903232D
:101EDC0000E25D4B1B6803F40033002BF0D014E0E0
:101EEC00FEF770FC386108E0FEF76CFC02463B69BB
:101EFC00D31A642B01D90323ECE1534B1B6803F475
:101F0C000033002BF0D100E000BF7B681B6803F0AE
:101F1C000203002B63D04C4B5B6803F00C03002BCB
:101F2C000BD0494B5B6803F00C03082B1CD1464BC0
:101F3C005B6803F48033002B16D1434B1B6803F012
:101F4C000203002B05D07B681B69012B01D00123F8
:101F5C00C0E13D4B1B6823F0F8027B685B69DB003A
:101F6C00394913430B603AE07B681B69002B20D086
:101F7C00364B01221A60FEF725FC386108E0FEF7AB
:101F8C0021FC02463B69D31A022B01D90323A1E1A0
:101F9C002D4B1B6803F00203002BF0D02A4B1B685F
:101FAC0023F0F8027B685B69DB00274913430B6065
:101FBC0015E0264B00221A60FEF704FC386108E09D
:101FCC00FEF700FC02463B69D31A022B01D903230E
:101FDC0080E11D4B1B6803F00203002BF0D17B68E2
:101FEC001B6803F00803002B3AD07B689B69002B1D
:101FFC0019D0174B01221A60FEF7E4FB386108E098
:10200C00FEF7E0FB02463B69D31A022B01D90323EE
:10201C0060E10D4B5B6A03F00203002BF0D0012052
:10202C0000F0CEFA1CE00A4B00221A60FEF7CAFB45
:10203C0038610FE0FEF7C6FB02463B69D31A022B50
:10204C0008D9032346E100BF0010024000004242C1
:10205C0080044242924B5B6A03F00203002BE9D1ED
:10206C007B681B6803F00403002B00F0A6800023A0
:10207C00FB758B4BDB6903F08053002B0DD1884B28
:10208C00DB69874A43F08053D361854BDB6903F0EE
:10209C008053BB60BB680123FB75824B1B6803F448
:1020AC008073002B18D17F4B1B687E4A43F48073DE
:1020BC001360FEF787FB386108E0FEF783FB0246EE
:1020CC003B69D31A642B01D9032303E1754B1B68BD
:1020DC0003F48073002BF0D07B68DB68012B06D1F6
:1020EC006F4B1B6A6E4A43F0010313622DE07B6851
:1020FC00DB68002B0CD16A4B1B6A694A23F0010385
:10210C001362674B1B6A664A23F0040313621CE0DC
:10211C007B68DB68052B0CD1614B1B6A604A43F072
:10212C00040313625E4B1B6A5D4A43F001031362A6
:10213C000BE05B4B1B6A5A4A23F001031362584BAA
:10214C001B6A574A23F0040313627B68DB68002B7D
:10215C0015D0FEF737FB38610AE0FEF733FB024679
:10216C003B69D31A41F28832934201D90323B1E07F
:10217C004B4B1B6A03F00203002BEED014E0FEF76E
:10218C0021FB38610AE0FEF71DFB02463B69D31ABE
:10219C0041F28832934201D903239BE0404B1B6AE6
:1021AC0003F00203002BEED1FB7D012B05D13C4B40
:1021BC00DB693B4A23F08053D3617B68DB69002BDE
:1021CC0000F08780364B5B6803F00C03082B61D062
:1021DC007B68DB69022B46D1334B00221A60FEF779
:1021EC00F1FA386108E0FEF7EDFA02463B69D31AC2
:1021FC00022B01D903236DE0294B1B6803F00073FC
:10220C00002BF0D17B681B6AB3F5803F08D1244BBF
:10221C005B6823F400327B689B68214913434B6055
:10222C001F4B5B6823F474127B68196A7B685B6ACA
:10223C000B431B4913434B601B4B01221A60FEF7E7
:10224C00C1FA386108E0FEF7BDFA02463B69D31AC1
:10225C00022B01D903233DE0114B1B6803F00073E3
:10226C00002BF0D035E0104B00221A60FEF7AAFAD2
:10227C00386108E0FEF7A6FA02463B69D31A022B36
:10228C0001D9032326E0064B1B6803F00073002BD7
:10229C00F0D11EE07B68DB69012B07D1012319E02B
:1022AC000010024000700040600042420B4B5B6823
:1022BC00FB60FB6803F480327B681B6A9A4206D190
:1022CC00FB6803F470127B685B6A9A4201D00123AD
:1022DC0000E0002318461837BD4680BD00100240B0
:1022EC0080B584B000AF786039607B68002B01D179
:1022FC000123D0E06A4B1B6803F007033A689A424B
:10230C0010D9674B1B6823F0070265493B681343E0
:10231C000B60634B1B6803F007033A689A4201D0C9
:10232C000123B8E07B681B6803F00203002B20D06C
:10233C007B681B6803F00403002B05D0594B5B68CA
:10234C00584A43F4E06353607B681B6803F008034E
:10235C00002B05D0534B5B68524A43F460535360D7
:10236C00504B5B6823F0F0027B689B684D4913432C
:10237C004B607B681B6803F00103002B40D07B682B
:10238C005B68012B07D1474B1B6803F40033002B10
:10239C0015D101237FE07B685B68022B07D1414B91
:1023AC001B6803F00073002B09D1012373E03D4B34
:1023BC001B6803F00203002B01D101236BE0394BA6
:1023CC005B6823F003027B685B68364913434B6000
:1023DC00FEF7F8F9F8600AE0FEF7F4F90246FB683C
:1023EC00D31A41F28832934201D9032353E02D4B87
:1023FC005B6803F00C027B685B689B009A42EBD134
:10240C00274B1B6803F007033A689A4210D2244BFF
:10241C001B6823F0070222493B6813430B60204BD7
:10242C001B6803F007033A689A4201D0012332E09B
:10243C007B681B6803F00403002B08D0194B5B6806
:10244C0023F4E0627B68DB68164913434B607B68BE
:10245C001B6803F00803002B09D0124B5B6823F4B4
:10246C0060527B681B69DB000E4913434B6000F024
:10247C0021F802460B4B5B681B0903F00F030A495A
:10248C00CB5C22FA03F3094A1360094B1B6818460C
:10249C00FEF756F9002318461037BD4680BD00BF25
:1024AC000020024000100240D02A0008000000204A
:1024BC000400002080B487B000AF0023FB60002331
:1024CC00BB6000237B6100237B6000233B611E4BC0
:1024DC005B68FB60FB6803F00C03042B02D0082B39
:1024EC0003D027E0194B3B6127E0FB689B0C03F002
:1024FC000F03174AD35C7B60FB6803F48033002B1B
:10250C0010D0114B5B685B0C03F00103114AD35CD8
:10251C00BB607B680D4A03FB02F2BB68B2FBF3F3B2
:10252C007B6104E07B680C4A02FB03F37B617B69F3
:10253C003B6102E0054B3B6100BF3B6918461C3711
:10254C00BD4680BC704700BF0010024000127A00EC
:10255C00E82A0008F82A000800093D0080B400AF02
:10256C00024B1B681846BD4680BC7047000000201B
:10257C0080B500AFFFF7F2FF0246054B5B681B0A04
:10258C0003F007030349CB5C22FA03F3184680BD22
:10259C0000100240E02A000880B500AFFFF7DEFF14
:1025AC000246054B5B68DB0A03F007030349CB5C6F
:1025BC0022FA03F3184680BD00100240E02A0008FE
:1025CC0080B485B000AF78600A4B1B680A4AA2FB46
:1025DC0003235B0A7A6802FB03F3FB6000BFFB6812
:1025EC005A1EFA60002BF9D100BF00BF1437BD464C
:1025FC0080BC704700000020D34D621080B582B0C3
:10260C0000AF78607B68002B01D1012342E07B682E
:10261C0093F84130DBB2002B06D17B68002283F8A3
:10262C0040207868FDF7D2FF7B68242283F8412094
:10263C007B681B68DA687B681B6822F40052DA60DE
:10264C00786800F071F97B681B681A697B681B68F5
:10265C0022F490421A617B681B685A697B681B687C
:10266C0022F02A025A617B681B68DA687B681B6857
:10267C0042F40052DA607B6800225A647B682022A4
:10268C0083F841207B68202283F842207B6800225B
:10269C005A63002318460837BD4680BD80B58AB002
:1026AC0002AFF860B9603B601346FB8000237B618E
:1026BC00FB6893F84130DBB2202B75D1BB68002B43
:1026CC0002D0FB88002B01D101236EE0FB680022B5
:1026DC005A64FB68212283F84120FEF773F8786175
:1026EC00FB68FA889A84FB68FA88DA84FB689B6832
:1026FC00B3F5805F08D1FB681B69002B04D1002364
:10270C00FB61BB68BB6103E0BB68FB610023BB6181
:10271C002EE03B6800937B6900228021F86800F072
:10272C0048F80346002B05D0FB68202283F8412093
:10273C0003233AE0FB69002B0BD1BB691B881A46BB
:10274C00FB681B68C2F308025A60BB690233BB61A9
:10275C0007E0FB691A78FB681B685A60FB69013358
:10276C00FB61FB68DB8C9BB2013B9AB2FB68DA84A1
:10277C00FB68DB8C9BB2002BCBD13B6800937B6955
:10278C0000224021F86800F014F80346002B05D015
:10279C00FB68202283F84120032306E0FB682022FB
:1027AC0083F84120002300E0022318462037BD4661
:1027BC0080BD80B586B000AFF860B9603B60134651
:1027CC00FB713BE03B6AB3F1FF3F37D0FDF7FAFFFB
:1027DC0002463B68D31A3A6A9A4202D33B6A002BF0
:1027EC0001D103233AE0FB681B68DB6803F00403A8
:1027FC00002B23D0BB68802B20D0BB68402B1DD076
:10280C00FB681B681B6803F00803082B16D1002318
:10281C007B61FB681B681B687B61FB681B685B68E2
:10282C007B617B69F86800F01DF8FB6808225A642C
:10283C00FB68002283F8402001230FE0FB681B6833
:10284C001A68BB681340BA689A420CBF0123002374
:10285C00DBB21A46FB799A42B4D0002318461837DB
:10286C00BD4680BD80B495B000AF78607B681B68B6
:10287C000C337B637B6B53E8003F3B633B6B23F474
:10288C009073FB647B681B680C33FA6C3A64FB63D3
:10289C00F96B3A6C41E80023BB63BB6B002BE5D1B1
:1028AC007B681B6814333B623B6A53E8003FFB6157
:1028BC00FB6923F00103BB647B681B681433BA6C9F
:1028CC00FA62BB62B96AFA6A41E800237B627B6AEE
:1028DC00002BE5D17B681B6B012B19D17B681B6826
:1028EC000C33FB60FB6853E8003FBB60BB6823F014
:1028FC0010037B647B681B680C337A6CBA617B6158
:10290C007969BA6941E800233B613B69002BE5D149
:10291C007B68202283F842207B6800221A6300BF68
:10292C005437BD4680BC704780B584B000AF78602A
:10293C007B681B681B6923F440517B68DA687B68F1
:10294C001B680A431A617B689A687B681B691A4387
:10295C007B685B691343BB607B681B68DB6823F493
:10296C00B05323F00C037A681268B9680B43D36038
:10297C007B681B685B6923F440717B689A697B6890
:10298C001B680A435A617B681B682C4A934203D12B
:10299C00FFF702FEF86002E0FFF7EAFDF860FA6864
:1029AC0013469B0013449A001A447B685B689B0097
:1029BC00B2FBF3F3224AA2FB03235B091901FA6869
:1029CC0013469B0013449A001A447B685B689B0077
:1029DC00B2FBF3F21A4BA3FB02035B09642000FB6E
:1029EC0003F3D31A1B013233154AA2FB03235B09F1
:1029FC0003F0F0031944FA6813469B0013449A0041
:102A0C001A447B685B689B00B2FBF3F20C4BA3FB94
:102A1C0002035B09642000FB03F3D31A1B0132335E
:102A2C00074AA2FB03235B0903F00F027B681B68B8
:102A3C000A449A6000BF1037BD4680BD0038014083
:102A4C001F85EB5103460244934200D1704703F8B3
:102A5C00011BF9E770B500260C4D0D4C641BA4103E
:102A6C00A64209D100F01AF800260A4D0A4C641B44
:102A7C00A410A64205D170BD55F8043B9847013609
:102A8C00EEE755F8043B98470136F2E7042B0008B3
:102A9C00042B0008042B0008082B0008F8B500BF15
:102AAC00F8BC08BC9E467047F8B500BFF8BC08BC23
:042ABC009E4670477B
:102AC00048656C6C6F2C2055415254210D0A000052
:102AD00000000000000000000102030406070809CE
:102AE00000000000010203040203040506070809B0
:0C2AF0000A0B0C0D0E0F1010010200006C
:082AFC0050D6FF7F010000002D
:042B04003101000893
:042B08000D010008B3
:0C2B0C0000127A00100000000100000020
:04000005080006D514
:00000001FF
